:20000000003800201D0F0000550F0000570F00000000000000000000000000000000000092
:20002000000000000000000000000000590F000000000000000000005B0F00003D78000039
:20004000CD3F0000D73F0000E13F0000EB3F0000F53F0000610F0000610F0000610F0000B0
:20006000610F00006D720000D114000069140000610F0000610F0000610F0000610F00000F
:20008000610F0000610F0000610F0000610F0000610F0000610F0000610F0000610F0000E0
:2000A000610F0000610F00007D690000610F0000610F0000610F0000610F0000610F00004A
:20040000FFFFFFFFFFFFFFFFFFFFFFFFFEFFFFFF20230421FF23042100000000000000003E
:2004200000000000963007772C610EEEBA51099919C46D078FF46A7035A563E9A395649E34
:200440003288DB0EA4B8DC791EE9D5E088D9D2972B4CB609BD7CB17E072DB8E7911DBF9054
:200460006410B71DF220B06A4871B9F3DE41BE847DD4DA1AEBE4DD6D51B5D4F4C785D38374
:2004800056986C13C0A86B647AF962FDECC9658A4F5C0114D96C0663633D0FFAF50D088D94
:2004A000C8206E3B5E10694CE44160D5727167A2D1E4033C47D4044BFD850DD26BB50AA5B4
:2004C000FAA8B5356C98B242D6C9BBDB40F9BCACE36CD832755CDF45CF0DD6DC593DD1ABD4
:2004E000AC30D9263A00DE518051D7C81661D0BFB5F4B42123C4B3569995BACF0FA5BDB8F4
:200500009EB802280888055FB2D90CC624E90BB1877C6F2F114C6858AB1D61C13D2D66B613
:200520009041DC760671DB01BC20D2982A10D5EF8985B1711FB5B606A5E4BF9F33D4B8E8B3
:20054000A2C9077834F9000F8EA8099618980EE1BB0D6A7F2D3D6D08976C6491015C63E6D3
:20056000F4516B6B62616C1CD83065854E0062F2ED95066C7BA5011BC1F4088257C40FF5F3
:20058000C6D9B06550E9B712EAB8BE8B7C88B9FCDF1DDD62492DDA15F37CD38C654CD4FB13
:2005A0005861B24DCE51B53A7400BCA3E230BBD441A5DF4AD795D83D6DC4D1A4FBF4D6D333
:2005C0006AE96943FCD96E34468867ADD0B860DA732D0444E51D03335F4C0AAAC97C0DDD53
:2005E0003C710550AA41022710100BBE86200CC925B56857B3856F2009D466B99FE461CE73
:200600000EF9DE5E98C9D9292298D0B0B4A8D7C7173DB359810DB42E3B5CBDB7AD6CBAC092
:200620002083B8EDB6B3BF9A0CE2B6039AD2B1743947D5EAAF77D29D1526DB048316DC73A2
:20064000120B63E3843B64943E6A6D0DA85A6A7A0BCF0EE49DFF099327AE000AB19E077DC2
:2006600044930FF0D2A3088768F2011EFEC206695D5762F7CB67658071366C19E7066B6EE2
:20068000761BD4FEE02BD3895A7ADA10CC4ADD676FDFB9F9F9EFBE8E43BEB717D58EB06002
:2006A000E8A3D6D67E93D1A1C4C2D83852F2DF4FF167BBD16757BCA6DD06B53F4B36B24822
:2006C000DA2B0DD84C1B0AAFF64A0336607A0441C3EF60DF55DF67A8EF8E6E3179BE694642
:2006E0008CB361CB1A8366BCA0D26F2536E2685295770CCC03470BBBB91602222F26055562
:20070000BE3BBAC5280BBDB2925AB42B046AB35CA7FFD7C231CFD0B58B9ED92C1DAEDE5B81
:20072000B0C2649B26F263EC9CA36A750A936D02A906099C3F360EEB856707721357000521
:20074000824ABF95147AB8E2AE2BB17B381BB60C9B8ED2920DBED5E5B7EFDC7C21DFDB0B41
:20076000D4D2D38642E2D4F1F8B3DD686E83DA1FCD16BE815B26B9F6E177B06F7747B71861
:20078000E65A0888706A0FFFCA3B06665C0B0111FF9E658F69AE62F8D3FF6B6145CF6C1681
:2007A00078E20AA0EED20DD75483044EC2B30339612667A7F71660D04D476949DB776E3EA1
:2007C0004A6AD1AEDC5AD6D9660BDF40F03BD83753AEBCA9C59EBBDE7FCFB247E9FFB530C1
:2007E0001CF2BDBD8AC2BACA3093B353A6A3B4240536D0BA9306D7CD2957DE54BF67D923E1
:200800002E7A66B3B84A61C4021B685D942B6F2A37BE0BB4A18E0CC31BDF055A8DEF022D00
:2008200056494256414C49440700000006000000030000000100000001000000FF0700004F
:20084000FF070000FF070000FF070000FF070000FF070000FF070000FF070000FF07000068
:20086000FF070000FF070000FF070000FF070000FF070000FF070000FF070000FF07000048
:20088000FF070000FF070000FF070000FF070000FF070000FF070000FF070000FF07000028
:2008A000FF070000FF070000FF070000FF070000FF070000FF070000FF070000000000000E
:2008C0000000000000000907DF070907090709070907090709070907090709070907090772
:2008E00009070907090709070907090709070907090709070907FF03FF05FF060001020337
:200900000405060708090909090A0A0A0A0B0B0B0B0C0C0C0C0D0D0D0D0D0D0D0D0E0E0E7F
:200920000E0E0E0E0E0E0E0E0E0E0E0E0E0F0F0F0F0F0F0F0F0F0F0F0F0F0F0F0F00000011
:2009400000400240200000000009121B242D363F48415A536C657E7719100B023D342F2601
:200960005158434A757C676E323B2029161F040D7A7368615E574C452B2239300F061D1487
:20098000636A7178474E555C646D767F4049525B2C253E3708011A137D746F6659504B4267
:2009A000353C272E1118030A565F444D727B60691E170C053A3328214F465D546B62797047
:2009C000070E151C232A31384148535A656C777E09001B122D243F3658514A437C756E6727
:2009E0001019020B343D262F737A6168575E454C3B3229201F160D046A6378714E475C5507
:200A0000222B3039060F141D252C373E0108131A6D647F7649405B523C352E2718110A03E6
:200A2000747D666F5059424B171E050C333A21285F564D447B7269600E071C152A233831C6
:200A4000464F545D626B7079426D1C33FED1A08F153A4B64A986F7D8ECC3B29D507F0E21A6
:200A6000BB94E5CA07285976311E6F408DA2D3FC66493817DAF584AB9FB0C1EE230C7D5286
:200A8000C8E796B9745B2A05A48BFAD518374669F3DCAD824F60113E0A25547BB699E8C766
:200AA0005D72032CE1CEBF90D7F889A66B44351A80AFDEF13C13624D79562708C5EA9BB446
:200AC0002E01705F92BDCCE3A18EFFD01D32436CF6D9A8874A65143B0F20517EB39CEDC226
:200AE00058770629E4CBBA95D2FD8CA36E41301F85AADBF4391667487C53220DC0EF9EB106
:200B00002B04755A97B8C9E647681936FBD4A58A103F4E61AC83F2DDE9C6B798557A0B24E5
:200B2000BE91E0CF022D5C73341B6A4588A7D6F9634C3D12DFF081AE9AB5C4EB26097857C5
:200B4000CDE293BC715E2F0008ED00E000B003401C000000000000000000000000000000B5
:200B6000000000000000000000000000000000000000000000000000000000000000000075
:200B8000000000000000000000000000000000000000000000000000000000000000000055
:200BA00000000000000073003200210049004A004B004C004D003D00000024003600000061
:200BC000200000003800390000003B005A00660037002C0040006A006B0000000000000011
:200BE0000000000000000000000000000000000000000000000000000000004141414141B0
:200C00000000000000000020202020202020202000404000800048480030303030303630CE
:200C200030000000000100010300010102010100000100010300010102010100000000006E
:200C4000000000000000000000093D0000093D0040420F0000093D0000093D0040420F005A
:200C600000093D0000093D0040420F00000000000000000000000000000000000000000057
:200C80000000000000093D0000093D0040420F0000000000000000000000000000B4C404BB
:200CA000006CDC02B0F3960100B4C404006CDC02B0F3960100B4C404006CDC02B0F39601B0
:200CC00000000000000000000000000000000000000000000000000000B4C404005A6202DA
:200CE000B0F39601006CDC02000001000103000101020101000102030405060708090A0B23
:200D00000C0D0E0F00000102030405060708090A0B0C0D0E0F00000100010300010102011B
:200D200001000000002005401600000000800040001002400001020304159D77F629923E03
:200D400050620D58E6D046714200000C0200000000000000000000000600000007000000B2
:200D60000C00010200B00440030000000000000300000000000000000000000000B0044076
:200D8000020000000000000300000000000000000000000000A00440040000000000000165
:200DA0000000000040F00F400101000001000000010000000000F5FF00000000B07B000091
:200DC000C0040020C4030000BA110000987E00008408002088000000300E0000207F000076
:200DE000002000209C1100004C0E000000F002F800F03EF80CA030C8083824182D18A2464F
:200E0000671EAB4654465D46AC4201D100F030F87E460F3E0FCCB6460126334200D0FB1ADE
:200E2000A246AB463343184794FFFFFFC4FFFFFF103A02D378C878C1FAD8520701D330C823
:200E400030C101D504680C60704700000023002400250026103A01D378C1FBD8520700D354
:200E600030C100D50B6070471FB51FBD10B510BD03488546FFF7F8FF06F084FE00F08EF956
:200E80000038002003B4FFF7F1FF03BC00F08EF970B505460C46164602E00FCC0FC5103E2A
:200EA000102EFAD2082E02D303CC03C5083E042E07D301CC01C5361F03E021782970641CB7
:200EC0006D1C761EF9D270BDC0000000000400200000000000000000C0000000747F000066
:200EE000FC7F000084080020840800200C090020002000209C310020C0040020C0040020F5
:200F000084080020B07B0000747F000000FCFF1F00FCFF1F000000200038002072B61149D9
:200F20000968114A1268521A013A05DD0020042308601944043AFBDA00BF0C480C490160FA
:200F40000A6882F308880B4880470B48804762B60A488047FEE7FEE7FEE7FEE7FEE7FEE757
:200F6000FEE70000140F0000180F000008ED00E00000000079780000417B0000ED0D0000C6
:200F8000F8B5042A2CD3830712D00B78491C0370401C521E83070BD00B78491C0370401CC8
:200FA000521E830704D00B78491C0370401C521E8B079B0F05D0C91ADF002023DE1B08C95C
:200FC0000AE0FFF765FFF8BD1D4608C9FD401C46B4402C4310C0121F042AF5D2F308C91A0E
:200FE000521EF0D40B78491C0370401C521EEAD40B78491C0370401C012AE4D4097801704C
:20100000F8BD01E004C0091F0429FBD28B0701D50280801CC90700D00270704700290BD001
:20102000C30702D00270401C491E022904D3830702D50280801C891EE3E70022EEE70022D4
:20104000DFE7002203098B422CD3030A8B4211D300239C464EE003460B433CD400224308CB
:201060008B4231D303098B421CD3030A8B4201D394463FE0C3098B4201D3CB01C01A52418A
:2010800083098B4201D38B01C01A524143098B4201D34B01C01A524103098B4201D30B01CB
:2010A000C01A5241C3088B4201D3CB00C01A524183088B4201D38B00C01A524143088B42E3
:2010C00001D34B00C01A5241411A00D201465241104670475DE0CA0F00D04942031000D319
:2010E0004042534000229C4603098B422DD3030A8B4212D3FC22890112BA030A8B420CD312
:20110000890192118B4208D3890192118B4204D389013AD0921100E08909C3098B4201D313
:20112000CB01C01A524183098B4201D38B01C01A524143098B4201D34B01C01A524103099E
:201140008B4201D30B01C01A5241C3088B4201D3CB00C01A524183088B4201D38B00C01A40
:201160005241D9D243088B4201D34B00C01A5241411A00D20146634652415B10104601D348
:201180004042002B00D54942704763465B1000D3404201B50020C046C04602BD10B5044672
:2011A000C046C0462046FFF76DFE10BD01491820ABBEFEE726000200704770B58C1805789A
:2011C000401C6B075B0F01D10378401C2A1106D10278401C03E00678401C0E70491C5B1E2D
:2011E000F9D12B0705D40023521E0DD40B70491CFAE70378401CCB1A921C03E01D780D7086
:20120000491C5B1C521EF9D5A142D8D3002070BD03B40148019001BD85080020F8B50546E5
:201220000E461446A80004490F58237862883146384600F067F8F8BD4C0B000070B5034661
:201240009D00054E74598E0025464835A8590005000D108070BD00004C0B00008100084B60
:201260005A5800BF00BF9023995880230B40D909002901D0012300E00023012BF2D0704704
:201280004C0B000010B51B480078002802D001282DD10CE018480078800018490A5800210E
:2012A0000846FFF7BBFF01201249087020E00020FFF7D4FF1048007840001149421800216E
:2012C0000846FFF7BBFF0C480078401CC0B20A490870032801DB00200870074800788000C5
:2012E00006490A5800210846FFF798FF00E000BF00BF10BDDC040020DD040020D004002021
:201300007C2E0020FFB582B004460F252D02AA4219DB6D1DAA4216DC6D1F551B0195144D35
:2013200000956D6807263604B543114E756035466D68019E360407273F043E4035430C4EC6
:201340007560152300E013468D00605940094001DD06ED0E284340260546B5432846059D75
:20136000AD01354028438D00605106B0F0BD000000800440F0B585B0074600240CE000251E
:2013800007E0A8000019385CA1006A46891848556D1C042DF5DB641C042CF0DB1649684670
:2013A00000F04AF8012611E0684606F009F9684606F0BCF80A2E02D0684605F0B8FD300152
:2013C0000D4A8118684600F037F8761C0A2EEBDD00240CE0002507E0A00069464018405D5E
:2013E000A900091978546D1C042DF5DB641C042CF0DB384605B0F0BDEC30002010B5044626
:20140000FF22013207490848FFF7BAFDFF22013206490748FFF7B4FD0649204605F032FABC
:2014200010BD0000BC050020EC2E0020BC060020EC2F0020EC30002030B502460B460021CC
:201440000FE000200AE08400A418645C8500ED186D5C6C408500AD186C54401C0428F2DB35
:20146000491C0429EDDB30BD1FB505242AE01748006B0121A140084000281ED02146134831
:2014800004F04AFE6A462146104804F0F9FF009800680001000F022802D1684600F03EF8D4
:2014A00000980F2212060168914301229206891801600120A04005490863044804F036FE23
:2014C000601CC4B2202CD2DB1FBD0000004002400E48006A04210840002802D004200B4924
:2014E00008620A48006A02210840002802D0022006490862064880680321090408400028AF
:2015000002D00846024988607047000000400240004B024010B504F06DFB10BD10B5334A82
:20152000917813469B785A1CD3171B0F9B181B111B01D31A2D4CA37022461279521C23466E
:201540001A7142681268D200530D0C01274A0832A2185360026812681203130F0C01234AF0
:201560000832A218D37082681268130E0C011F4A0832A2181372826812681202130E0C011A
:201580001A4A0832A2185372826812881204130E0C01164A0832A2189372826813780C018B
:2015A000124A0832A218D372C2681268130E0C010E4A0832A2181373C26812681202130E19
:2015C0000C010A4A0832A2185373C26812881204130E0C01054A0832A2189373C2681378EA
:2015E0000C01024A0832A218D37310BD0020002038B504460D46E0780090606882B2234674
:2016000008332946024804F087FE012038BD00000040024070B505460E46122D05DA31466C
:20162000284600F091FC044610E0222D05DA3146284600F04DFD044608E0442D05DA31463F
:20164000284600F09DFB044600E00424204670BD70B59EB005462C46002D03D1684600F0E0
:2016600093FA6C46204600F0A1FF0646002E0BD120466C3000F044FF2046443000F0DAFF07
:201680002046743000F072FF30461EB070BD000070B504460025222C09DD322C07D0352C10
:2016A00005D0372C03D03A2C01D0432C01D1042509E02146054805F0A1FC002802D1FF2530
:2016C000013500E00025284670BD000000500640F3B585B00E4600200490002E0BD101218D
:2016E00068464173002181730121417281720021017202AC00E0344600BF37490322120297
:2017000089180868012149060140480E002801D0012100E00021002902D00220049016E0ED
:2017200000BF2D4803210902401800680121C90588432949032212028918086000BF00BF99
:201740000120800624498918086000BF00BF059800283ED0049800283BD16078A178420711
:20176000520F0B0207273F023B401A4301921A4B03273F02DB19019A5A6000BF2078810729
:20178000890F154A3B46D218916000BF6079A17901224240D20008231A4001231A43CB05F7
:2017A0000127FF053B401A4301920B4B03273F02DB19019A1A6000BF142500E06D1E00F075
:2017C00087FA002801D1002DF8D1002D01D103200490049807B0F0BD00400640F8B5044665
:2017E0000026E078214600F07BF80646002E05D1607F2146103100F0EBF8064600F0AEF914
:20180000012802D0022806D102E02546363504E025463A3501E0002500BF00BF002E5AD179
:20182000E878032844D10126607F002813D0012E11D101216846C1702848817968468170DC
:201840002648C179684641702448017A6846017001F028F80646E078002813D0012E11D1AA
:2018600002216846C1701D480178684681701B48417868464170194881786846017001F004
:2018800011F80646002E26D1A07BE11DFFF720FF0646002E1FD1E9786846C170A9788170E4
:2018A000697841702978017000F0FCFF064612E0E9786846C170A9788170697841702978D6
:2018C000017000F0EFFF0646002E04D1A07BE11DFFF7FEFE06463046F8BD00002F0C0000AD
:2018E000F3B585B00E4600200490002E0BD168460173012141730021817301214172817224
:20190000017202AC00E0344600BF30490868012149060140480E002801D0012100E0002180
:20192000002902D0022004900EE000BF274800680121C90588432549086000BF00BF002142
:201940002248016000BF00BF059800283AD00498002837D16078A1784207520F0B020727CD
:201960003F023B401A430192184B019A5A6000BF2078C207D20F19468A6000BF2179607987
:20198000A37901934A0002231A4001231A43830004273B401A43019BDB057F053B401A43EF
:2019A00000920A4B009A1A6000BF642500E06D1E00F090FC002801D1002DF8D1002D01D10E
:2019C00003200490049807B0F0BD000000420640F3B587B00E4600200690002E0ED1684624
:2019E000017301750121017441744173002181730221C1733F48029002AC00E0344600BFB1
:201A00003D490868012149060140480E002801D0012100E00021002902D00220069010E009
:201A200000BF354800680121C90588433249086000BF00BF89043048016000BF00202F4929
:201A400008600798002852D0069800284FD1207A617A4207520F0B0207273F023B401A43DC
:201A60000192254B019A5A6000BFE079A17963790193020130231A40CB0008273B401A43EA
:201A8000019B9B0004273B401A431B4B9A6000BF2079002804D0012809D0022815D10DE059
:201AA000237B00221146164805F052FC0EE0237B00220121124805F04BFC07E0237B012260
:201AC00011460F4805F044FC00E000BF00BF0B49206808600B4D00E06D1E00F0A3FC002807
:201AE00001D1002DF8D1002D01D103200690069809B0F0BD00127A000041064034050020F6
:201B00000040064088E7300038B50024114805F018FC03281CD000F0DBF8002804D1002135
:201B20000120FFF7D5FD0446002C11D103216846C1700948C17868468170074801796846C1
:201B40004170054841796846017000F0ABFE0446204638BD00400640230C000000BF0949AA
:201B60004969C9B2012905D0042905D0802905D1032005E0012003E0022001E0042000BFC6
:201B800000BF704700E007400121C1700021017101214171002181710121017041708170A6
:201BA000012282730273002242730021C17101220272427230210A540021C16242774249EC
:201BC000016100220275027701224275002282750222C27501220276427628210A54002227
:201BE00020210A5427210A5421210A540C2222210A54002223210A54012224210A54252161
:201C00000A5435210A54032234210A54012243210A54032239210A54002238210A5401221C
:201C200037210A5436210A5402223D210A5401223C210A5400223B210A5403223A210A54C1
:201C4000224A02671621C166012244210A54002245210A5446210A5447210A54012248216E
:201C60000A544C210A544B210A5400224A210A5449210A54012260210A5461210A54622159
:201C80000A5463210A5464210A5465210A546B210A5450210A54002242658265C26501228A
:201CA00066210A5467210A54002268210A5469210A546A210A54012274210A5475210A5475
:201CC000002276210A54704700127A003805002000BF0C49032212028918096801221206B3
:201CE0001140090E00290BD000BF064903221202891889688907890F8900034A505800E019
:201D00000020704700400640E40C000070B504460D4629462046FFF77DFC70BD10B500245A
:201D200000BF164800690C2108408008002806D0012807D0022807D003281BD10FE07D247A
:201D4000A40218E0002416E00C4805F015FB002802D07D20000200E0002004460BE0074855
:201D600005F00AFB002802D07D20000200E00020044600E000BF00BF204610BD0080044031
:201D8000F8B504460D46002600272046FFF780FC0646002E55D12D48005D202108400028B1
:201DA0000AD0012000F050FB002802D1FF20013000E00020064622E02448005D40210840E2
:201DC00000280AD0002000F03FFB002802D1FF20013000E00020064611E01C48005D8021CD
:201DE000084000280AD0022000F02EFB002802D1FF20013000E00020064600E000BF002EFA
:201E00001FD11248005D18210840002819D00F48005D08210840002804D00021204600F0F1
:201E200017F807460948005D10210840002804D00121204600F00CF80746002F01D1FF2634
:201E40000136002D00D02F603046F8BDDE0B0000F3B581B00446002524486100244A515A7D
:201E6000890041581022114009090E4600BF61001F4A515A890041580907090F0F46BE4284
:201E800031D8214605F0BAF800282CD017486100174A515A89004158072212061140090E70
:201EA000012904D0022908D0032912D10BE00620029900F043FA05460DE00420029900F052
:201EC0003DFA054607E00520029900F037FA054601E0002500BF00BF791C2846FFF7B1F847
:201EE0000546701C45432846FEBD000000500640540B000010B500BF1248006A0F210906DE
:201F00000840000E002806D0012809D002280BD0032811D10CE0022000F096FA04460DE094
:201F200000F080FA044609E000F0D4F9044605E0FFF7CEFE044601E0002400BF00BF204623
:201F400010BD000000400640F8B504460D4600270026230005F0E6FD10090E13181C2024EA
:201F600053282B2F353B41474D53002000F06CFA064646E0012000F067FA064641E002200B
:201F800000F062FA06463CE000F044F8064638E000F0A0F9064634E0FFF79AFE064630E02A
:201FA00000F040FA06462CE01948066829E0FFF7A1FF064625E00021042000F0BFF90646A7
:201FC0001FE00121042000F0B9F9064619E00021052000F0B3F9064613E00121052000F07D
:201FE000ADF906460DE00021062000F0A7F9064607E00121062000F0A1F9064601E00427CE
:2020000000BF00BF002D00D02E603846F8BD00003005002070B500BF2C4840680121C90242
:202020000840C00A00284DD000BF28484068F02108400009030005F075FD0F09340D341306
:2020400034191F342429342C34303400FFF752FF044628E00121062000F070F9044622E015
:202060000121042000F06AF904461CE00121052000F064F9044616E0002000F0E5F9044675
:2020800011E0012000F0E0F904460CE07D24A40209E0FFF743FE044605E000F0E7F8044680
:2020A00001E0002400BF00BF00BF08484068072109020840000A451C29462046FEF7C1FF76
:2020C000044600E00024204670BD000000800440F8B506460D460020009000273046153875
:2020E000030005F01FFD0D081624282C3547575F708192A3B30000BF5948C0680321090663
:202100000840040E00BF032C02D2A00055490F589FE000BF5248C068032189060840840E71
:2021200000BF032C02D2A0004E490F5891E0FFF771FF07468DE000F099F8074689E04A48E5
:2021400005F07BF8002802D0FFF7E8FD074680E0454805F072F800280BD000BF40480069F6
:20216000C007C00F002802D07D20C00000E0002007466EE03C4805F060F8002809D0384885
:2021800005F0FAF8002802D07D20000200E0002007465EE0344805F050F8002801D07D27DE
:2021A000BF0256E000BF2E49086C102101400809002801D0012100E00021002902D1FF20C4
:2021C0000130009045E000BF2549086C08210140C808002801D0012100E00021002902D126
:2021E000FF200130009034E000BF1D49086C042101408808002801D0012100E00021002917
:2022000002D1FF200130009023E000BF1449086C022101404808002801D0012100E00021A8
:20222000002902D1FF200130009012E000BF0C49086CC007C00F002801D0012100E0002196
:20224000002902D1FF200130009002E00420009000BF00BF002D00D02F600098F8BD0000B5
:2022600000800440E02E002000D0074010B500BF16480069302108400009002806D0012841
:202280000AD0022813D003281AD113E00021062000F054F8044615E00C4805F06DF80028B6
:2022A00002D07D20000200E0002004460AE00848046807E00021052000F040F8044601E03D
:2022C000002400BF00BF204610BD00000080044030050020002000BF084909680122120634
:2022E0001140090E002907D000BF04498968C907C90F002900D0024870470000004206404F
:2023000000127A0070B504460025012C04D0022C06D0032C0CD107E000F084F8054609E005
:20232000FFF7D8FF054605E0FFF7D2FC054601E0002500BF00BF284670BD000070B5044603
:202340000D460026002D02D0012D58D128E0042C10D0052C02D0062C1ED114E0FFF7B8FCD4
:2023600000BF2D4903221202891849684907490F0E4613E0FFF7AEFF00BF284949684907DA
:20238000490F0E460AE000F04DF800BF244949684907490F0E4601E0002000BF00BF30E00A
:2023A000042C12D0052C02D0062C24D118E0FFF78FFC00BF18490322120289184968072294
:2023C00012021140090A0E4617E0FFF783FF00BF12494968072212021140090A0E460CE016
:2023E00000F020F800BF0E494968072212021140090A0E4601E0002000BF00BF01E0002099
:2024000000BF00BF002E04D0711E0246CA40104600E0002070BD00000040064000420640CA
:202420000041064000BF06490968012212061140090E002902D00349086800E00020704785
:20244000004106403405002070B50546224804F078FF012804D0022806D003280CD107E06B
:20246000FFF7E0FF044609E0FFF734FF044605E0FFF72EFC044601E0002400BF00BF1648B1
:2024800004F058FF461C31462046FEF7DAFD0446002D04D0012D03D0022D17D10AE017E0A2
:2024A0000D4804F041FF461C31462046FEF7C9FD04460DE000BF084800690007000F461C72
:2024C00031462046FEF7BDFD044601E0002400BF00BF204670BD00000040064010B504467B
:2024E000034804600171826003734373002010BDD02E002010B504462046FFF7A9F810BDC9
:202500007CB50446002C2DD0606800282AD0002525E0AA00AA186068815C0022124804F082
:2025200081FDA900691860684018C078AA00AA1861688918097900910190AE00AE196068E4
:2025400080198378AE00AE19606880194278AE00AE196068815D044804F086FD6D1C206868
:20256000A842D6D87CBD000000500640F8B504462078002816D061780B4804F069FE0A487E
:20258000022161560A46002A02DA2023D7187AB2D6B20579E0273D40F706FF0E3D43057123
:2025A00000BF00BFF8BD000000D0074070B504460025002C37D0FFF7A7FA0546002D03D127
:2025C0002046FFF70BF90546002D2CD13020005D002802D01549E06A08603520005D002895
:2025E0000FD03420015D124A106A0F231B0602469A4310460A061A4010430D4A106200BF61
:2026000000BF4320005D00280DD021463631012000F09AF80546002D05D121463A31022083
:2026200000F092F80546284670BD00003005002000400640F8B50446207800281BD06178E4
:20264000A278E3783E4E7068FF2636010746B7433846CE020127FF023E4030431601F02768
:202660003E4030431E0207273F023E403043344E706000BF00BF2079002807D06079009018
:20268000A379E279217A2E4804F0A0FE207F002815D0617F2A4804F0BBFEA17F284804F0F1
:2026A000ABFEE17F264804F06DFE2020015D244804F080FE2120015D214804F06FFE207BC4
:2026C00000280ED000250AE0032D06D2A900204610304058A9001B4A5050681CC5B2032D1D
:2026E000F2D32220005D002828D000BF1448806E00201349886600BF2420015D104A506870
:2027000001231B0302469A4310460A031A4010430B4A506000BF00231A461946084804F058
:2027200080FE2320005D002808D02620035D2520025D2320015D024804F073FEF8BD00002C
:2027400000800440E02E0020F3B587B00C46002006900025A078401C0590A078401C617825
:20276000491C48430490A078401C2178491C48430390E078FFF7C6FD05462D0907980128EB
:2027800002D002287ED13FE0E0780C21484342490858000905994843A84215D3E0780C214B
:2027A00048433D4940184068000904994843A8420AD3E0780C214843374940188068000937
:2027C00003994843A84202D2012006901BE0E3780293A07861782278029B1B060F263606B8
:2027E000334006040F273F043E4033430E01F0273E4033431607360F33430193274E019B58
:20280000736100BF00BF42E0E0780C21484324490858000905994843A84215D3E0780C21DE
:2028200048431F4940184068000904994843A8420AD3E0780C2148431949401880680009F2
:2028400003994843A84202D2012006901DE0E078A27861782678029603060F263606334071
:2028600016040F273F043E4033430E01F0273E403343029E3607360F33430193074E019B9A
:20288000B36100E002E000BF00BF00E000BF00BF069809B0F0BD0000900C00000040064060
:2028A0003C0C0000F8B505460026FFF757F9074629463846FFF748FF0646002E0DD10A246F
:2028C00000BF641E064804F03CFDE978884201D0002CF6D1002C00D103263046F8BD0000FC
:2028E00000400640FEB507460E460020019068460770467003F04EFF3E48007B3D494873F0
:20290000012168468170002518E03A488068A9004458002C10D0207902280DD06846226846
:20292000A1689047002807D032484573002E03D1FF200430019005E0681CC5B22D48007BD0
:20294000A842E2DC00BF0198002801D0012E10D128490968BA008858FFF7CCFD0190019809
:20296000002801D1012000E0002002902148477101E0002002900298002822D00220694671
:202980008870002518E01B488068A9004458002C10D0207901280DD068462268A1689047CF
:2029A000002807D013484573002E03D1FF200530019005E0681CC5B20E48007BA842E2DCC5
:2029C00014E000206946887000BF0A488068A9004458002C03D068462268A1689047002DBA
:2029E00000D102E0681EC5B2EFE700BF03F0E8FE0198FEBDD02E00200B4988690B49484026
:202A0000C1B20B4A515C0B4A51714105090E084A525C08490A72C1040A0E06498A71C10315
:202A20000A0E0449CA71704700E000E05AA55AA5480A00006823002070B5044600250326C7
:202A40006078002801D1052070BD2079002801D10320F9E748E00B2003F090FE2079002827
:202A600004D10B2003F0A0FE3046EDE7E578E178481CC117090F091809110901411AE17080
:202A80002079401E20710B2003F08EFE29012046083008184068164988420ED101211548ED
:202AA00001702A01214608315018134900F07EF8114800F005FA064616E02901204608305E
:202AC000081840680A49D63188420DD10021094801702A01214608315018074900F066F878
:202AE000054800F0EDF90646002EB4D13046ABE709070000882300203021002010B510216A
:202B0000114804F0CDFAFEF705FD104800F028F80F4800F03AF80F4800F037F800F080FAE9
:202B200000200D49486100210B482030417000200A49487000210948417381730069102122
:202B400088430649086110BD40F00F40002000203021002040210020682300200821002080
:202B600070B504460120207060700020E070A070207126460836002504E03046103600F0F5
:202B800004F86D1C102DF8D370BD012202704270002282704260C270002104E000230246DC
:202BA00008325354491C0829F8D3704710B543684B60C378CB70002206E0034608339C5C07
:202BC0000B4608339C54521C082AF6D301238B7010BD00000146052903DBFF2901D00F20A9
:202BE00070471748007A002801D00F20F8E71448407A002803D0032901DA0F20F0E71048C8
:202C0000C07A002803D0032901D10F20E8E70C48007B002803D0042901D10F20E0E7FF299C
:202C200004D10022D2430648028207E00448008A01228A4092B21043014A10820020CFE7C2
:202C40000821002070B504460D466078002801D1052070BD052D01DB0920FAE72946204658
:202C6000FEF7C6FC002801D10E20F2E70020F0E710B512480068C00FC007002800D010BDC3
:202C80000F48807B002817D101210D4881730B48006B1021084000280BD0094840780840DC
:202CA000002806D00648407888430549487000F0BDFB00210248817300BFE0E70040024030
:202CC0000821002010B50F241B480068C00FC007002800D010BD1948007A002800D0F9E7DA
:202CE0001648407B002824D1012114484173007B00281BD111480069C006C00F002815D079
:202D000004210F48FFF79EFF0446204600F09CFB002C0BD1094800691021884307490861F6
:202D200008464078102108430449487000210348417300BFCEE700000040024008210020AD
:202D40004021002008B500236A460121074800F091FA002807D168460078FF2801D0012037
:202D600008BD0020FCE70120FAE700000300001408B5FF20009000236A460121044800F0D5
:202D800065FB002801D1012008BD0020FCE700000300001408B5A720009000236A460121D0
:202DA000044800F053FB002801D1012008BD0020FCE700000300001438B5044600236A4685
:202DC0000121064800F056FA002805D168460078C0432070012038BD0020FCE7040000145B
:202DE00038B504462078C043C0B2009000236A460121044800F02AFB002801D1012038BD99
:202E00000020FCE70400001438B5044600236A460121094800F02EFA00280AD10120A040FE
:202E2000694609780840002801D0012038BD0020FCE70020FAE700000100001438B50446BB
:202E400000236A4601210C4800F014FA002811D10120A040694609788143009100236A46C8
:202E60000121054800F0F2FA002801D1012038BD0020FCE70020FAE70100001438B50446A7
:202E800000236A4601210D4800F0F4F9002812D10120A040C0B2694609780843009000235F
:202EA0006A460121054800F0D1FA002801D1012038BD0020FCE70020FAE70000010000140F
:202EC00070B504460F256078002801D1052070BDA078002801D10620F9E7E078082801D0BA
:202EE0000A20F4E732200E49486101210C482030417000200B49486060680B49884203D12E
:202F000000200749087002E0012005490870204600F00CFC05460020A0702846D7E70000FB
:202F2000682300209C2E00200907000070B505460026286804782E2C2CD010DC192C38D0BB
:202F400006DC102C1CD0112C1CD0142C37D12FE0222C19D0272C19D0282C30D118E0362CC5
:202F600022D006DC2F2C25D0312C15D0342C26D118E0372C1AD03E2C10D0852C1FD10FE075
:202F80001A4E21E01A4E1FE01A4E1DE01A4E1BE01A4E19E01A4E17E01A4E15E01A4E13E021
:202FA0001A4E11E01A4E0FE01A4E0DE01A4E0BE000BF00BF7F21204600F07AF870BD112174
:202FC000204600F075F8F9E700BF272C08D03E2C06D000201149C870002110482030017137
:202FE000002E01D02846B04700BFE7E7A94400000946000089460000DD460000C1480000A9
:20300000054A00009D4A00000150000075500000714B0000494D0000494F000068230020CF
:2030200010B51D481D4948600820C87000F000FE01F026F800201A49087001204870002007
:203040008870012149021748FDF7F7FF00201549091F48800880FFF775FE002803D06421E3
:203060000F48816102E000210D48816100210C4820308171C17101724172C17081708172B9
:203080002038C16108480949086000208880054888600020888110BD890700004021002048
:2030A0006823002068210020A4230020502100207FB505460C462848007801280ED1112C46
:2030C00000D17FBD122C00D1FBE7312C00D1F8E77E2C00D1F5E77F2C00D1F2E7782C1AD1AA
:2030E0001E48019008216846C170032101727F2141728572C472AA21017341738173C1739F
:203100000421FEF775FA32201349486101211248203041701DE00020114988817F22888920
:20312000411C0F4B9981194689680A5419468889411C1A469181114689680D5411468889C0
:20314000411C9181114689680C549168908900F0F5FC00BFB5E700006823002089070000CF
:203160005021002010B50446A168A08900F0E6FC10BD000010B50023124A0221124800F02D
:2031800079F8002812D10F480E38C0890F49884207D00C480E38C089401C0A490E39C881B2
:2031A00008E0012007490E39C88103E0012005490E39C8810023034A0221034800F046F937
:2031C00010BD00007623002011000014FFFF000008B500236A4601210520800600F04AF8B7
:2031E000002814D168460078B5280ED1FF20009000236A4601210520800600F027F9002859
:2032000001D1012008BD0120FCE70020FAE70020F8E7000010B50023124A0221124800F041
:2032200029F8002812D10F481038008A0F49884207D00C481038008A401C0A491039088298
:2032400008E0012007491039088203E001200549103908820023034A0221034800F0F6F861
:2032600010BD0000782300200F000014FFFF000070470000F8B504460D4616461F460520BE
:203280008006844204D36019401E1449884201D90C20F8BD32462946204602F0F7FA0028FA
:2032A0001AD000BF002F04D0012F03D0032F0FD104E00EE001210A48C1700AE0A9B2FF2270
:2032C000304600F024FE002801D00920E1E700E000BF00BF0020DCE70F20DAE7FF00001438
:2032E0008823002010B504461448606007E0AA21E278204608308154E078401CE070E078FD
:203300000828F4DB207A0E490872617A0C484172A17A8172E17AC172217B0173617B417325
:20332000A17B8173E17BC1730420FFF753FC002801D1012010BD0020FCE700008907000009
:203340004021002001488078704700006823002010B500F07AF8FFF78BFF0B48C0780028EF
:2033600010D00A48007C00280CD109480069C006C00F002806D1022000F054FE04F08EFA6C
:2033800000BFFEE710BD000088230020F42700200821002010B524484069002814D022481D
:2033A0004069401E204948610846406900280BD100211D482030417020384078012803D066
:2033C000012119482030C17017488069002818D015488069401E1449886108468069002848
:2033E0000FD1081DFFF7E8FC0F480079002804D00D480079401E0C4908710B48001DFFF7C2
:20340000EFFC0948C06900280CD00748C069401E0549C8610846C069002803D10021024818
:203420002030817210BD00006823002010B500F0A3FC3220034948610121024820304170C9
:2034400010BD00006823002070477047F8B504460D4617461E4605208006844204D36019BA
:20346000401E0E49884201D90C20F8BD3A462946204602F03FFA00280DD0002E02D0012E5E
:2034800005D100E004E001210548C17000E000BF00BF0020E9E70F20E7E70000FF00001494
:2034A0008823002010B500240E484078002802D0012806D100E008E0012400210948417040
:2034C00003E000210748417000BF00BF002C08D0054806490860001F408888800846FFF72F
:2034E00025FD10BD04280020B02500205021002010B500248948007C030004F013FB0D08BB
:20350000092C3695B83B5875C2CCED7FFC00F6E0824820384069002803D100217F480174FB
:2035200010BD7E482038C0687C4920390968884200D2F5E77A48FFF7D5FE002803D00221C8
:203540007648017406E0754820380068401E73492039C860D3E0714820384069002803D1D1
:2035600000216E480174DBE7C9E0012400216B480174C4E00020694920398871032068498A
:20358000C87066482038007930300872634820384179634841720021817201215F4820384A
:2035A000C16124210161072120300174A7E05B4820380069002803D1002158480174AFE7A2
:2035C00056482038C069002800D0A9E75448FFF789FE002803D008215048017403E00121F5
:2035E0004E482038C1618AE04C4820380069002803D100214948017492E780E04748203819
:20360000006A002803D100214448017488E7434808300079002806D0002140480830017126
:203620000124083801746AE03C4820384069002803D100213948017472E738482038C06875
:20364000364920390968884200D269E73448FFF749FE002803D005213048017406E02F4811
:2036600020380068401E2D492039C86047E02B4820384069002803D10021284801744FE762
:203680003DE0264820388069002803D100212348017445E733E0214820384069002807D1B8
:2036A0000B201E492039086000211C48017437E71A482038406A002800D031E71848FFF7D5
:2036C00011FE002803D00B211448017403E0012112482038416212E0104820384069002816
:2036E00008D10B200D492039086000210B48017416E700E003E000210848017400BF00BFA2
:20370000002C08D0074808490860001F408888800846FFF70BFC00BF02E70000F427002080
:20372000C4270020A423002050210020F0B504460F276078002801D10520F0BDA0780028FD
:2037400001D10620F9E7207AF0210840002806D0102860D0202873D0302872D112E1F148E6
:20376000007C0A2807D0EF48007C0B2803D0ED48007C092801D10F20DFE76068EA4988429D
:2037800021D1207A0007000FE849488008464088072803DC08464088002801D10A20CCE77D
:2037A000002508E0681C21460831095CDF48001D4155681CC5B2DD484088A842F2DC0321D5
:2037C000D848017426E06068D749D631884221D1207A0007000FD6494880084640880728C7
:2037E00003DC08464088002801D10A20A5E7002508E0681C21460831095CCD48001D4155C6
:20380000681CC5B2CA484088A842F2DC0121C5481030417080E1C348007C0A2807D0C14801
:20382000007C0B2803D0BF48007C092801D10F2083E76068BC49D631884203D10F207CE7E3
:203840003FE068E1207A0007010D607A0818B749488008464088072805DB08464088012132
:203860000903884201DD0A2067E7B048408801214902884206DD0220AA492039087100203B
:2038800048711AE00020A749203908714871A74908800EE0A5480088801C21460831095C5E
:2038A000A2480288001D8154001F0088401C9F4908809E4800880628ECDB0621994801744F
:2038C0002AE160689849D631884201D10F2034E79448007C082801D100F04EFA9148007C60
:2038E0000C284ED18F4820388079401C8D4920398871084680790007000F8871084680792C
:20390000217A0907090F884204D00021854801740F2012E7002516E08448008883494988AF
:20392000884208DA681C21460831095C7F480288001D815400E008E0681CC5B27B48008801
:20394000401C7A490880072DE6DB00BF754820384079002806D0734820384079401E71495C
:20396000203948714B216F48203801626F4800886E494988884204DB01216A480830017169
:20398000CAE0C9E060686849D631884201D10F20D3E66448007C052801D100F0EDF961482A
:2039A000007C0B280BD15F4808304079002806D05C482038007A012801D100F0DDF959480E
:2039C000007C092871D1207A0007000F55492039C871607A0872A07A0860084600687F28E5
:2039E00002D90B20086017E04E4820380068002803D14C49203908600EE04A48203800687A
:203A0000401C484920390860084600684008086008460068801C086042482038C079002895
:203A200054D140482038007A002804DD01213D480830417103E000213A480830417139487C
:203A40002038407A401C3749203948720846407A0007000F48720846407A064620362F2193
:203A60000E4034480672002516E03348008832494988884208DA30480188001D425C691CAD
:203A80002C480830425400E008E0681CC5B22A480088401C28490880072DE6DB00BF072DEA
:203AA00004D108202349C87003E033E0681C2149C8701C4820380168416200682330194964
:203AC000203948610A211748017423E015482038C079012815D113482038807A401C114982
:203AE000203988720846807A002805DD0020887200210C4801740FE04B210A482038816136
:203B00000AE008482038C079022803D100210548017401E000E000BF00BF00270020A07063
:203B200038460AE6F427002009070000A0230020AC250020C4270020B825002070B5044681
:203B40000D46002C03D001204002844201D9002070BD082C04D22946204600F049F803E0D0
:203B60002946204600F002F80120F1E770B50246012424031443E304DB0C0824194DEC70C1
:203B80001C122C722C4663720024174D2C800CE00E78154C2488A41C124D08352E55491C1B
:203BA000114C2488641C104D2C800F4C2488062CEEDB0D4D6A80062005E00D780A4C241D06
:203BC0002554491C401C084C64888442F5D8074C24682334054D6C610425044C203425741D
:203BE00070BD0000C4270020B8250020D427002070B503071B0F441C0B4DEC702C46237201
:203C0000002207E00E78084C0834551C6655491C541CE2B28242F5D32325044C65610125E0
:203C20002034257470BD0000C4270020D427002010B54121C9002648FDF7FFF90821254864
:203C4000FDF7FBF94121C9002348FDF7F6F9234800218160C16000201D49091F48801D4999
:203C6000091F48801C49091F48801949091F08801849091F08801849091F0880002118484A
:203C8000017410304170002015492039C8600B200860002112482038016141618161C16151
:203CA0000162416200200E492039087148718871C87108724872002109480830017100205A
:203CC000074920398872012105480830417110BDA4230020B0250020BC250020C427002033
:203CE000F427002010B5FFF703FCFFF7DBFB10BD2048C0681F490968884204D21D48C068A0
:203D0000401C1C49C8601B480069002804D019480069401E1749086116484069002804D0FE
:203D200014484069401E134948611248C069002804D01048C069401E0E49C8610D488069FF
:203D4000002804D00B488069401E0A4988610948006A002804D00748006A401E054908620B
:203D60000448406A002804D00248406A401E014948627047D427002010B55A4A127C13002F
:203D800003F0D0FE0D08090A1228291314153D3E3F27AC00A3E0A2E00022524B203BDA60B5
:203DA0000023504A13749AE099E098E097E04E4A127A1207120F002A07D14B23494A203A22
:203DC00013620C232032137402E00023454A137485E084E083E00022424B203B5A72012325
:203DE000404A0832537100223E4B203B9A724B233C4A203A93610923203213746FE06EE045
:203E00006DE03A4A1288394B5B889A425DDA354A203A127A521E334B203B1A721A462832C9
:203E20005279002A0BD01A46127A002A07D14B232C4A203A936109232032137410BD294A4D
:203E4000203A527A521C274B203B5A721A46527A1207120F5A721A46527A114620312F23DD
:203E60001940214A1172002016E0204A12881F4B5B889A4208DA1D4A1388121DD45C421C17
:203E8000194B08339C5400E008E0421CD0B2174A1288521C154B1A800728E6DB00BF0728AA
:203EA00003D10822104BDA7002E0421C0E4BDA700C4A203A1368536212682332094B203B1E
:203EC0005A610A23074A137407E00B22054B203B1A600023034A1374B0E700E000BF00BFFD
:203EE00000BFABE7F4270020C4270020B825002001460807000F092801DD00207047F020D3
:203F00000840902801DD0020F8E70120F6E710B503460C46002106E0585C904201D00020E8
:203F200010BD481C81B2A142F6DB0120F8E700B50246002307E0D05CFFF7DAFF002800D16E
:203F400000BD581C83B2042BF5DB1078992801DD0020F5E75078992801DD0020F0E7907873
:203F6000122802DC9078002801D10020E8E7D078312802DCD078002801D10020E0E701206F
:203F8000DEE70000F7B5009800230AE00D784540ECB2050AA600044FBE5975402846491CBC
:203FA0005B1C9342F2D3FEBD2004000030B50346184604E00C78491C4440034D285D144605
:203FC000521E002CF6D130BD480A000010B5002001F0F6FB10BD10B5012001F0F1FB10BD1B
:203FE00010B5022001F0ECFB10BD10B5032001F0E7FB10BD70B5002001F0DAFB064600BF97
:20400000F06A0546002400BF09E0E807C00F002802D0204601F0A2FB6D08601CC4B2042CEC
:20402000F3D370BD10B5044619E0FA2000F01AF8002003F04BFDFA2000F014F8002003F0E5
:2040400045FDFA2000F00EF8002003F03FFDFA2000F008F8002003F039FD601E84B2002C8C
:20406000E3DC10BD09E0032103E000BF00BF4A1ED1B20029F9DC421E90B20028F3DC70470D
:20408000012040021A490880401C088119480882401C0883001D0884801C0885401C08865F
:2040A000C01D088713491A3111484030018012480F49486011490E48C16011494161114922
:2040C000C161114941621149C162114941631149C163114941640748401D104908800548EF
:2040E0001A3008810E4848600E490C48C1607047082800207FF10000F941000031420000FF
:204100006942000085420000A1420000D1420000E5420000014300001D43000050280020D4
:20412000FD43000055440000FFB587B005460C46002006902E48854207D2214628460A9BD8
:20414000099AFFF797F80BB0F0BD112C01D90F20F9E72748854205D32819401E2449FF315F
:20416000884201D90C20EEE701AAA11C284601F08DFB0746002F08D10120069001AAA11CD7
:20418000E81DF93001F082FB0746002F01D10F20D9E701A8005D772828D1621C01A9002060
:2041A000FFF704FF01AA611C515C88421ED10698002803D0A11C284601F09CFB002604E022
:2041C00001A8815D09988155761CA642F8D30A98002802D0012805D100E004E001210548CE
:2041E000C17000E000BF00BF0020ACE70F20AAE7000100148823002038B504460D46022031
:20420000288003236A4602210848FFF78DFF002806D168464078207068460078607002E05E
:20422000002020706070002038BD00000F00001438B504460D460220288003236A46022179
:204240000848FFF771FF002806D168464078207068460078607002E000202070607000203B
:2042600038BD00001100001430B505460C4611202080228827218902284602F073FA002067
:2042800030BD000030B505460C461120208022880249284602F066FA002030BD209C000060
:2042A00070B505460C460A20208003232A460A210548FFF739FF002804D0228803492846D6
:2042C00002F050FA002070BD050000141404000002460120088002484078107000207047DA
:2042E0006823002030B505460C460E20208022880249284602F036FA002030BD409C000055
:2043000030B505460C460E20208022880249284602F028FA002030BD609C000070B505465D
:204320000C460420208003232A4604210548FFF7FBFE002804D022880349284602F012FA12
:20434000002070BD1F00001410040000FFB585B005460C462748854207D221462846089BBC
:20436000079AFFF773F809B0F0BD112C01D90F20F9E72048854205D32819401E1D49FF3173
:20438000884201D90C20EEE7002604E00798805D69468855761CA642F8D37720694608557E
:2043A000621C0020FFF702FE6A46611C5054A11C284601F09FFA0746002F01D10F20D2E7AD
:2043C0006A46A11CE81DF93001F094FA0746002F01D10F20C7E70898002802D0012805D1FF
:2043E00000E004E001210448C17000E000BF00BF0020B8E7000100148823002070B50446EE
:204400000D4628880A2801D0132070BD0E484078022801D07E20F8E70B488078002801D16B
:204420003320F2E7002322460A210848FFF78EFF002806D1FEF79EFE0120054988710020AF
:20444000E3E71020E1E700006823002005000014A02A002070B504460D462888042801D07D
:20446000132070BD0E484078022801D07E20F8E7FEF768FF002801D13320F2E72046FFF778
:2044800056FD002801D13120EBE70023224604210448FFF75BFF002800D1E2E71020E0E7A7
:2044A000682300201F000014F8B50446206806782068407845066D0E2068407880210840F2
:2044C0000746A088022804D013213046FEF7F0FDF8BD012D04D0022D33D0032D57D114E0A8
:2044E00048484078012804D0022806D0032809D100E000BFFEF794FD05E00121414820306D
:20450000C17000E0E4E700BF46E03E484078012804D002280DD0032810D100E000BF0020CD
:20452000384988700021374820308171C171017205E07E213046FEF7BBFDC9E7C8E700BFB6
:204540002AE030484078012804D0022812D003281AD104E07E213046FEF7AAFDB8E729485D
:204560002030807A002804D122213046FEF7A0FDAEE700BF002023498870002121482030F7
:204580008171C171017200E0A2E700BF04E012213046FEF78DFD9BE700BF1A484570002FC9
:2045A00028D10020A08131464031A089421CA281A2681154A089411CA181A1680D5400218D
:2045C000A089421CA281A26811543221A089421CA281A26811540021A089421CA281A26881
:2045E0001154C821A089421CA281A26811542046FEF7B8FD022D03D10121024820304171D3
:2046000000BF65E768230020F8B5044620680578206840784606760E2068407880210840AF
:204620000746A088022804D013212846FEF740FDF8BD012E04D0022E1BD0032E18D100E066
:2046400000BF01210F48C170002F10D10020A08129464031A089421CA281A2681154A0897E
:20466000411CA181A1680E542046FEF77BFD05E000BF12212846FEF71BFD00BF00BF00BFEE
:20468000D6E700008823002070B5044620680678A088032804D013213046FEF709FD70BD24
:2046A0000020A08131464031CAB2A089411CA181A1680A54204600F03BFD0546002D03D16C
:2046C0002046FEF74FFD06E07E2D00D1312529463046FEF7EDFC00BFE1E70000F8B504463A
:2046E000206806782068407847067F0E20684078802108400090A088022802DBA08806285C
:2047000004DD13213046FEF7D3FCF8BD6A480078012804D122213046FEF7CAFCF5E766486F
:204720004078012804D17F213046FEF7C1FCECE7614840786149097888420AD000205E4931
:20474000C87000215C4820300171203840785B490870012F73D0022F72D0112F02D0122F35
:204760006FD144E0A088022808D013213046FEF79FFC0021504820300171C6E74E484078FB
:20478000032808D17E213046FEF792FC00214A4820300171B9E748488069002804D037219B
:2047A0003046FEF785FCB0E7AA204349C8700020A08131464031A089421CA281A2681154A6
:2047C000A089411CA181A1680F54204600F022FD0546002D06D10098002807D12046FEF70E
:2047E000C1FC03E029463046FEF762FC61E0324820300079002804D124213046FEF758FC5C
:2048000083E700212C4820300171A088062804D013213046FEF74CFC77E727484078032816
:2048200004D17E213046FEF743FC6EE72248C078AA2807D024213046FEF73AFC65E72DE07B
:204840002DE031E0FEF77EFDAA2804D124213046FEF72EFC59E70020A08131464031A089B7
:20486000421CA281A2681154A089411CA181A1680F54204600F040FD0546002D09D1AA2085
:204880000D4988700098002807D12046FEF76AFC03E029463046FEF70BFC0AE000BF7E2165
:2048A0003046FEF705FC04E012213046FEF700FC00BF00BF00BF28E768230020C50400202E
:2048C000F8B5044620680578206840784606760E20684078802108400746A088032804D02F
:2048E00013212846FEF7E4FBF8BD45484078032804D07F212846FEF7DBFBF5E7002E06D090
:20490000012E74D0022E73D0032E6FD135E020688078002803D020688078032804DD3121D2
:204920002846FEF7C5FBDFE720688078C007C00F002804D00021324820308171C1712068E5
:20494000807802210840022803D100212C4820300172002F10D10020A08129464031A08944
:20496000421CA281A2681154A089411CA181A1680E542046FEF7F6FB3FE020688078002821
:2049800003D020688078032804DD31212846FEF78FFBA9E720688078C007C00F002804D0D7
:2049A0000121174820308171C1712068807802210840022803D10121114820300172002FAC
:2049C00010D10020A08129464031A089421CA281A2681154A089411CA181A1680E54204643
:2049E000FEF7C0FB09E002E002E0FFE700BF00BF12212846FEF75CFB00BF00BF00BF73E772
:204A00006823002070B5044620680678A088032804DA13213046FEF74BFB70BD1E48007855
:204A2000012804D122213046FEF742FBF5E71A484078012804D17F213046FEF739FBECE787
:204A40000020A08131464031CAB2A089411CA181A1680A5421684A78A089411CA181A168A6
:204A60000A5421688A78A089411CA181A1680A54204600F0B1FC0546002D03D12046FEF794
:204A800071FB06E07E2D00D1312529463046FEF70FFB00BFC1E7000068230020F8B5044605
:204AA000206806782068407847067F0E20684078802108400090A088042804DA1321304641
:204AC000FEF7F6FAF8BD29480078012804D122213046FEF7EDFAF5E720688078F52803D173
:204AE0002068C078182808D020484078012804D17F213046FEF7DCFAE4E7012F04D01221DD
:204B00003046FEF7D5FADDE70020A08131464031A089421CA281A2681154A089411CA181AD
:204B2000A1680F5421688978A089421CA281A26811542168C978A089421CA281A268115483
:204B4000204600F075FC0546002D06D1009800280AD12046FEF706FB06E07E2D00D1312590
:204B600029463046FEF7A4FA00BFABE76823002070B5044620680578A0880B2804D01321EA
:204B80002846FEF795FA70BD6B480078012804D122212846FEF78CFAF5E767484078022834
:204BA00004D07F212846FEF783FAECE762488078002804D133212846FEF77AFAE3E72068B2
:204BC0004078002803D120688078442804D031212846FEF76DFAD6E72068C0780006574922
:204BE0000860084600682168097909040843534908600846006821684979090208434F4941
:204C00000860084600682168897908434B4908602068C07900064860084640682168097A33
:204C20000904084345494860084640682168497A0902084341494860084640682168897A9A
:204C400008433E4948600846006805214903884213D33A480168002240680B185241002077
:204C6000591E824136480023401A93410AD23348006801214907884204D031212846FEF7A7
:204C800017FA80E72D48006801214907884203D101202C49087102E002202A49087129483F
:204CA000007928480079022810D12648407902280CD024484079052808D0224840790628DF
:204CC00004D022212846FEF7F3F95CE700201B4988600861002119480175006817498861AD
:204CE00000211648C16101621648403841630320144948710020A08129464031CAB2A08937
:204D0000411CA181A1680A542022A089411CA181A1680A540222A089411CA181A1680A5429
:204D20000022A089411CA181A1680A542046FEF719FA00BF27E700006823002060280020B4
:204D4000FFFF0100A02A002070B5044620680678A088022804DA13213046FEF7A9F970BD57
:204D600076480078012804D122213046FEF7A0F9F5E772484078022804D07F213046FEF761
:204D800097F9ECE76D488078002804D133213046FEF78EF9E3E76A484079032808D06848D8
:204DA0004079042804D024213046FEF781F9D6E76448007D401CC1B262480175007D216835
:204DC0004978884204D073213046FEF771F9C6E7A088801E5B49086108468068096940188B
:204DE000584988600B461A692368991C554BD868FFF7C8F85349C860002152480162504806
:204E00004038406B002812D000250BE04C4908394A5D4C49086A411C4A4B196219462431B0
:204E20000A546D1C46484038406BA842EED800250BE02268A91C525C4249086A411C414B37
:204E40001962194624310A546D1C3E480069A842EFD83C48006A4107490F39484038416371
:204E60003848016A36484038406B091A3548C161806834494968884216D231484038406B80
:204E800000282ED0002509E02E48C06941192D482430415C2A48083841556D1C28484038C6
:204EA000406BA842F0D81CE025484038406B002817D0002509E0FF222249086A411C214B25
:204EC0001962194624310A546D1C1D484038406B0821081AA842EED81A48C0690830194914
:204EE000C861184AD1699069243201F0E3FB00281DD014488169C0690818124988610420C3
:204F00000F4948710020A08131464031CAB2A089411CA181A1680A5421684A78A089411CFB
:204F2000A181A1680A542046FEF71CF903E072213046FEF7BDF800BF11E700006823002080
:204F4000A02A00206028002070B5044620680578A088012804D013212846FEF7A9F870BDC1
:204F600024480078012804D122212846FEF7A0F8F5E720484078022804D07F212846FEF714
:204F800097F8ECE71B488078002804D133212846FEF78EF8E3E718484079042804D02421F2
:204FA0002846FEF785F8DAE700201449086048608860086100211148017500200F49886121
:204FC00000210E48C16101620B48403841630520094948710020A08129464031CAB2A08970
:204FE000411CA181A1680A542046FEF7BBF800BFB5E7000068230020A02A00206028002025
:20500000F8B5044620680578206840784606760E20684078802108400746A088022804D0E8
:2050200013212846FEF744F8F8BD002E04D012212846FEF73DF8F7E7002F10D10020A081EC
:2050400029464031A089421CA281A2681154A089411CA181A1680E542046FEF783F832201C
:2050600003494861012102482030417000BFDBE768230020F8B50446206805782068407866
:205080004606760E20684078802108400746A088022804D013212846FEF70AF8F8BD2348EB
:2050A0004078032804D07F212846FEF701F8F5E7012E02D0022E30D117E000211B48203064
:2050C0004172002F10D10020A08129464031A089421CA281A2681154A089411CA181A16822
:2050E0000E542046FEF73EF81CE001210F4820304172002F10D10020A08129464031A089EB
:20510000421CA281A2681154A089411CA181A1680E542046FEF726F804E012212846FDF79A
:20512000C7FF00BF00BF00BFB8E7000068230020F0B5FFB086B00446A188481EC10F0918CE
:20514000C905090E839100265DE021687000401C085C070222687100891C515C0F4300256D
:2051600007E0E8002A49085AB84200D103E0681CC5B2092DF5DB00BF092D03DB31207FB089
:2051800006B0F0BDE800224940184068002836D0E8004018426802A903A8904701900198EA
:2051A00000282AD1A08969460989401880B201214902884201DD7120E1E73912A089421C98
:2051C000A281A2681154A089421CA281A2681754002084900BE003AA8499515CA089421C01
:2051E000A281A26811548498401CC0B284906946098984988842EEDB03E00198BFE73120BC
:20520000BDE7701CC6B2839886429EDB0020B6E70828002010B50446FEF794F8AA2815D135
:205220000022A089411CA181A1680A54A089411CA181A1680A54A089411CA181A1680A541F
:20524000A089411CA181A1680A5451E029480079002805D1012127480171FDF7CDFB27E060
:2052600024481C38FDF7A8FD224820380079401CC0B2204920390871032801DD03200871EC
:205280001C481C38FDF7ACFD1A482038007903280EDB6421174820388161FDF77BFD0021C7
:2052A00014480171002013492039C870362010BD104920394A79A089411CA181A1680A546C
:2052C0000C4920398A79A089411CA181A1680A5408492039CA79A089411CA181A1680A5412
:2052E000044920390A7AA089411CA181A1680A540020DCE78823002030B587B00546002040
:205300000490039028688178684601762868C1786846417628680179684681762868417991
:205320006846C1762B4841796846017529488179684641752748C179684681752548017A33
:205340006846C175002002F0C1FB03A8042104AA0023009201910290112205A802F08AF8F0
:2053600000242BE004A8015D1A4809300155005D06A9095D88421FD01648001DFDF71CFD50
:2053800014480079401CC0B212490871032801DB032008710F48001DFDF722FD0D4800799E
:2053A000032807DB64210B488161FDF7F3FC362007B030BD3520FBE7601CC4B2042CD1DB44
:2053C000002004490871081DFDF70AFDFDF7D0FC0020EDE768230020F8B504462068407831
:2053E00000022168897808430646A088C01E80B20090002516E0E8000C49085AB0420FD136
:20540000E80040184068002808D02168C81CE900064BC9184A6869469047F8BD3120FCE7FB
:20542000681CC5B2022DE6DB3120F6E750280020F8B504462068807800022168C97808432D
:205440000090B74A0098811A904276D007DCFF38FF380438002871D0012870D106E0B14831
:205460000818002816D00128F7D112E1A088042801D01320F8BDAC484078032801D07E20C7
:20548000F8E70121A8482030817232212038C1610020EFE7A0880D2801D01320EAE7A248F9
:2054A0004078022801D07E20E4E79F488078AA2801D03320DEE720680079442801D03120A7
:2054C000D8E79A484079012805D098484079022801D02220CEE795488079012801D02220D7
:2054E000C8E720684079050620688079000405432068C079000205432068007A0543206807
:20550000407A06062068807A000406432068C07A000206432068007B06430520400385426E
:2055200009D30020AA1940410021521E8841804B9A1A814104D231209CE7E4E042E0EDE033
:205540000020FDF77BFC00280DD101F0A1F800207649487188710121A089421CA281A268C9
:205560001154002086E701F07FF800280DD101F08FF800206D49487188710121A089421C22
:20558000A281A2681154002074E701F02FF800280AD00220654948710021A089421CA28190
:2055A000A2681154002065E701F072F800205F49487188710121A089421CA281A268115400
:2055C000002057E7A088082801D0132052E756484078022801D07E204CE753488078AA2851
:2055E00001D0332046E751484079052801D0222040E7206800790706206840790004074304
:2056000020688079000207432068C07907434948C068C043B84230D10020C0434549C86022
:2056200042480079012819D100F0A0FF002809D001213E4841710021A089421CA281A26895
:2056400011540BE001F024F800203849487188710121A089421CA281A2681154334800796B
:20566000022808D10620314948710021A089421CA281A26811540020FCE600F0F5FF01F0BD
:2056800007F80121A089421CA281A26811540020F0E6A088042801D01320EBE6224840788F
:2056A000022801D07E20E5E61F488078AA2801D03320DFE61D484079062807D00121A089FE
:2056C000421CA281A26811542220D3E600F00EFF00280CD00020FDF7D1FB0021A089421C56
:2056E000A281A2681154FDF795FD0020C2E600F0BBFF00F0CDFF0221A089421CA281A2688D
:2057000011540020B6E6A088042801D01320B1E601210548203041710020ABE63120A9E677
:2057200018F5000018F6FFFF68230020A02A0020FFFF01006028002030B50246151190072A
:20574000800FAB00044CE1580B4604461C7700BF00BFDC7700BF30BD2C0D0000F8B50546AA
:2057600028110090AE07B60F009880000E490F5800223146384600F039F8A8000B4909686B
:205780000C58002C0ED02846FFF7D6FF00BFBE7700BF012020736068002803D0217B6268D2
:2057A000A0689047F8BD00002C0D0000B805002001468800014A1058704700002C0D0000CD
:2057C00070B50546A800084909680C582846FFF7B3FF002C06D06068002803D0217B62684A
:2057E000A068904770BD0000B8050020002A01D0C17600E08176704770B51548C0680F2126
:2058000009030840050B0F2D08D100F027F80446002C0AD000F05CF8044606E0042D03D137
:2058200000F056F8044600E070BD002C0DD0094803E0411E081E00D105E007494978C9077A
:20584000C90F0029F5D000BF00BF00BFECE7000040800440B80B0000000002401CB58021F7
:2058600068460170002141708170C1700321017141710621FBF7CCFC0446212020400028D9
:2058800001D101201CBD0020FCE7000030B503460C460D484078C007C00F002800D130BD30
:2058A00005208006834204D31819401E074DA84201D90020F3E7002102E0585C5054491C40
:2058C000A142FAD30120EAE700000240FF07001438B5812168460170002141700221FBF735
:2058E00097FC044620202040002801D1012038BD0020FCE730B503460C4613484078C007BE
:20590000C00F002800D130BD05208006834204D31819401E0D4DA84201D90020F3E70021C3
:205920000EE0505C58540A4D03E0681E051E00D1E9E705484078C007C00F0028F5D0491CB0
:20594000A142EED30120DEE700000240FF07001410270000F0B589B004460025002603278D
:205960006748407A030002F0DDF807050630468B94A8C700C1E06078002802D1052009B08C
:20598000F0BD2079002801D10320F8E7E57801205B4908721C20684323460833C01802467E
:2059A0000C321C206843C01881681C206843C01840680190FFF79EFF5148001D01F0BBFF15
:2059C00002204F494872022797E000214C48001D01F09CFF0021C94388420AD100204849D2
:2059E000087200BF4648001D01F0A5FF032044494872022781E0E5781C226A43234608334E
:205A0000D21891681C226A43D218506805AAFFF73DFF00260CE005A8815D1C206843224649
:205A2000083280180C30805D814200D008E0761C1C2068432146083140188068B042EAD8F3
:205A400000BF1C2068432146083140188068B04204D105202A49487202274EE02848007868
:205A6000401CC0B226490870032804DB002008700620487202E004202149487202273CE080
:205A80001F48001D01F057FF01201D494872022733E0E5781C206843214608314018007E04
:205AA000002802D0012805D100E004E001211548C17000E000BF00BF00BF13480079002860
:205AC0000FDD1149C978481CC117C90E091849114901411A0C4AD17010460079401E1146F1
:205AE00008710748001D01F026FF00200449087001204872002700E000BF00BF38463EE7C3
:205B0000602E002088230020A82A002010B5FFF773FE064800F019F8054800F02CF80548F1
:205B200000F00CF801200449487210BDA82A0020302E00204C2E0020602E00200021017032
:205B4000416081600174C160704770B504460120207060700020E070A070207126460836CB
:205B6000002505E030461C3600F005F8681CC5B2202DF7DB70BD01220270427000228270C4
:205B8000426082600276002104E0002302460C325354491C0C29F8D3704738B502460B4612
:205BA00000206C462370012112E04C1E6D462C5D6406240E6C544C1E2C5D80252C40002C3A
:205BC00005D06C46645C1B256C406D466C54491C0429EADB002109E014460C41E407E40F39
:205BE000002C02D06C46645C6040491C0429F3DB38BD000010B5644800F0DCF9002805D00D
:205C0000614800F01AF9604800F0E7F800205E494968012252039143420301235B031A407C
:205C20001143594A516000BF0A2000F0A7FD0B2000F0A4FD544800F0E4F8534800F094F903
:205C40000020514909680122D2029143C2020123DB021A4011434C4A11601146096D4900BE
:205C60004908C207D20FD2071143474A116500BF00BF114609689A01914301224240520445
:205C80009B011A401143404A116000BF0021104600F02AFB20213C4800F086FA00BF3A48FE
:205CA00040683A49084038494860394800784007400F3749098909040722120411400843BF
:205CC00033498988C904D200114008433049097B0906090E090608432D49098A89050322C3
:205CE0009205114008432849496808432649486000BF0021244800F0B3FA0120002807D1E3
:205D0000214909680122120491431F4A116007E01D49096801221204914389181A4A116080
:205D200000BF0020C043184908631F21164800F0B3F91F21C943144800F04AF9154C03E05C
:205D4000601E041E00D106E00F48006A0121890408400028F4D000BF012291030A4800F090
:205D6000E7F90122D103084800F0E2F90648406840210843044948600A2000F015FD0B2043
:205D800000F012FD10BD000000400240F8FF000028080000B80B0000F8B50546284600F075
:205DA0008BF88700284600F087F800902E468036002403E00020A1007050641CBC42F9D370
:205DC0001120C0012E18002403E00020A1007050641C00988442F8D3F8BD0168C90F00293B
:205DE0000ED10168490049080122D2078918016000BF0168012212051140090D0029F8D009
:205E000070470168012212051140090D002913D0016849004908016001689202914301601F
:205E2000016892109143016000BF01680122D2061140C90E0029F8D170470021026801237F
:205E40009B079A43D218026002689B109A43D21802600268D20F002A01D1012103E0026883
:205E600052005208026000BF026801231B061A40120E002AF8D000290BD10268DB011A4392
:205E8000026000BF026801231B051A40120D002AF8D07047016801221207914301600168CE
:205EA00092009143016000BF0168012212061140090E0029F8D1704710B502460020002159
:205EC00008E08B00054CE358934202D18B00044CE058491C0029F4D010BD000040090000A0
:205EE00044090000F0B585B004460D46204600F024F8074608200490800103900498381863
:205F0000C6B231460398FBF79CF8C0B2019028460199FBF796F8C001029028460199FBF799
:205F200090F8B00841430298081800900098810020468030081805B0F0BD70B505462846C4
:205F400000F03EF8002801D108240AE00320800228180068032109040840000CC01C012438
:205F60008440E0B270BD000010B5044620680121490688434018206000BF2068012149063B
:205F80000840400E0028F8D1206849138843401820602046FFF700FF0020C0432061606133
:205FA000A0610020A062401E20630148206210BD06003B0001460868C00F01225040704714
:205FC000014608680122D2021040C00A70470000F3B581B005462B48854204D1202000903F
:205FE000294E2A4F00E0FEBD002446E00120A0400299084000283ED02846FFF71EFFA00091
:20600000385A800422490840A1001122D201AA1850502846FFF73EFF1E4A2146284600F0E0
:206020002FFA00201B49096808601A4908680F22120601689143016016494868144AD2439E
:20604000016811406200B25A9204114B1A4011430160104908680F221206016891430122A5
:206060009206891801600120A0402863A86A0121A1400843A862601CC4B200988442B5DBB0
:2060800000BFB0E700400240BC0800003C0800000000FC1F6C2E0020F8B505460E461C489B
:2060A000854201D1202700E0F8BD00242CE00120A0403040002825D0164A2146284600F088
:2060C000DFF900201349096808601249496808601049896808600F49C96808700D490868A6
:2060E0000F221206016891430122D20689180160084908680F221204016891430122D204DF
:2061000089180160601CC4B2BC42D0DB00BFCBE7004002406C2E002070B504220D465543FF
:20612000EBB29E0005468035AC5970BD8168704730B513460A46002B1AD00124A402A14201
:2061400002D06400A14205D1046801256D05AC43641904600124A403A14205D1446B6400E4
:2061600064084D04641944634468144344601AE04468944344600124A403A14203D1446B44
:2061800064006408446342680124A4021440002C09D10124E4021440002C04D104680125C7
:2061A0006D05AC43046030BDF0B589B004460D462046FFF7C2FE0890002007900820069089
:2061C000691E2046FFF78EFE059008990598411806980818049020468030FF30FF3002302C
:2061E0000499814204D82046FFF766FEA84202D2032000020790079800282ED12068C00912
:20620000C001691E4906490E0843206000BF2068012149070840400F00281ED100261AE03E
:2062200031462046FFF75EFE03900398001D029003980830019000210398016002980160D6
:20624000002703E000210198C1557F1C08988742F8D3701CC6B2AE42E2D3079809B0F0BDE7
:2062600030B504460D462B0001F05CFC05101E2404083B002046FFF7E0FD33E02068400076
:2062800040080121C907401820602BE020680121C9058843206060680821884360606068DA
:2062A0004902884360601DE06068082188430830606017E060680121090388434018606087
:2062C0006068082188436060012021684204914301224240520443041A401143216000BF4E
:2062E00000E000BF00BF30BD70B504460E462046FFF766FE00280DD0032080022018056881
:20630000032109042846884305463004054388112018056070BD0000FFB581B005460E4665
:206320001C460A9F5348854204D1202E02DD002005B0F0BD082F01DD0020F9E700F02AFA43
:206340000120B04028634C4A3146284600F098F8494908680F221206016891430122D20623
:206360008918016044494868444A01681140039A9204424BDB431A40114301603E490868B2
:206380000F221204016891433A040F231B041A40114301603849886801680902090A227849
:2063A0001206120E12061143016033498868FF2212040168914362781204FF231B041A406D
:2063C000114301602C4988681A1201689143A27812021B121A401143016027498868016807
:2063E000090A0902E278114301602349C86801680902090A22791206120E120611430160AD
:206400001D49C8681A0201689143627912041B021A40114301601849C8681A120168914376
:20642000A27912021B121A40114301601249C8680168090A0902E279114301600E49086808
:20644000012252050168914301600B4908685210016891430160084908680F2212060168ED
:206460009143032292068918016000F0A9F901205EE70000004002406C2E0020FFFF03E074
:2064800070B50B46114DA84202D1202B01DD70BDFDE704241D466543E9B28E0005468035D5
:2064A000751915604D1CAE0005468035751955608D1CAE000546803575199560CD1CAE000E
:2064C000054680357519D56000BFE0E7004002400120054908704870002088700120C870E1
:2064E0000020087170470000100500200FB53F20C002006802903F20C00240680390029842
:20650000020E6846C27002980002020E6846827002980004020E684642700298C2B2684675
:2065200002700398020E6846C27103980002020E6846827103980004020E68464271039864
:20654000C2B26846027100210AE06846405C064A525C904202D0002004B000BD481CC1B247
:206560000829F2DB0120F7E7200800000FB51D48006B02901B48406B03900298020E6846D7
:20658000C27002980002020E6846827002980004020E684642700298C2B2684602700398A6
:2065A000020E6846C27103980002020E6846827103980004020E684642710398C2B26846CF
:2065C000027100210AE06846405C074A525C904202D0002004B000BD481CC1B20829F2DBEA
:2065E0000120F7E7C00300202008000070B505246403002678213120FCF75AFD00BF174864
:2066000000688068002806D014480068816820468847054601E0002070BD002D04D00026AA
:206620000120C002241806E0701CC0B20646052801DD0020F0E70A4800680A2808D900201C
:206640000749086001F042FA78213120FCF730FD04488442D3D92846DEE70000C80400206E
:2066600020050020FFFF010010B5084800688068002807D00548006881683F20C0028847E4
:20668000044600E00024204610BD0000C80400200021064A11600120400702E0FF210170D0
:2066A000401C03498842F9D970470000C8040020FF030020FEB505460E46174601204007BA
:2066C000854211D3A819401E234988420CD8002402E0385D2855641CB442FAD30120400713
:2066E0001E4908600120FEBD05204003854204D3A819401E1A49884201D90020F3E7700752
:20670000400F002801D00020EDE700200190002400BF124800684068002807D039190F4897
:206720000068426828469047009001E00020DAE70098002804D0002001900834083507E00B
:206740000198401CC0B20190052801DD0020CAE7B442DED30120C6E7FF030020C8040020E2
:20676000FFFF010010B50346002003E00C5C1C54441CA0B29042F9DB10BD0000C206D20E64
:2067800001219140024A43099B00D1507047000080E100E072B603480068401C01490860D1
:2067A00070470000A8050020C206D20E0121914042099200014BD2181160704700E100E0BE
:2067C00007480068002809DD05480068401E0449086008460068002800DC62B670470000A3
:2067E000A805002070B504460D46601C002800D170BD05204003854200D2F9E7FFF748FF4A
:2068000000BF00BF00BFBFF36F8F00BF00BF00BF00BF00BF00BFBFF34F8F00BF00BF00BF44
:2068200000BF00BF00BFBFF35F8F00BF00BF00BFFFF7B0FF0A20FFF7A1FF0B20FFF79EFF1B
:206840000C48FFF7CAFA00200B4908610B48056000BF84F3088800BF00BF84F3098800BF8A
:20686000052040030649886004480068804700BFBEE700000040024000E000E0C004002074
:2068800000ED00E0F3B585B00B4638A56F682E68AD6803970296049500200CE0002407E0BC
:2068A000A5002E18059DAD5D8600F6183555641C042CF5DB401C0428F0DB012152E00022DA
:2068C0004DE0002011E0002A06D00D01ED188600AE19551E755D05E04D1E2D01ED188600CC
:2068E000AD19ED7801AE3554401C0428EBDB002A21D16D462D79009500200DE0451CEE176A
:20690000B60F7619B610B600AE1B01AFBE5D1A4FBE5D01AF3E54401C0328EFDB164E009DFB
:20692000765D6D46EE712D794E1E02AFBE5D75406E46357100BF00200EE04D1E2D01ED181A
:206940008600AD19AD5C01AE365C75400E01F6188700F619B554401C0428EEDB521C042A43
:20696000AFDB491C0A29AADD07B0F0BD01020408102040801B360000EC2E002010B500209B
:2069800000F098F810BD02463F200002814204D150690B461843506104E0506901238B40C7
:2069A000184350610020704770B50446A0000A490D5800220B21284600F081FA00220C21B7
:2069C000284600F07CFA0B212846FFF7DCFF0C212846FFF7D8FF70BDAC050020FEB5064613
:2069E000B00032490C58B00031490D58002700BFE86D4007400F2121095D081AC0B20090DC
:206A00004FE0207901280CD1208B012809D100BF286E012109058843286600BF002020839A
:206A200042E06088A18B401A042805DC6088A18B401A80B2019001E0042001900027206942
:206A400000281FD06088012802D002280CD105E0206907782069401C20610BE020690788DF
:206A60002069801C206105E0206907682069001D206100BF00BF6188A38B019A9818FAF79B
:206A8000EAFAA18300BF6F6600BF218B0198081A2083208B002800D106E00098401EC0B29F
:206AA000009000980028ACD100BFFEBDB4050020AC05002070B50446002C10D1A000084978
:206AC0000D5800BF686AC007C00F002803D0204600F062F802E0204600F052F900BF70BD10
:206AE000AC05002070B50446A00008490D58204600F00EF801221146284600F0C7F90122E9
:206B00001146284600F0C2F9002070BDAC05002070B50546A8001E490C58A8001D490E5890
:206B2000002020732420005D002808D10021304600F0E3F90021304600F0EDF909E0002225
:206B40000121304600F0ACF900221146304600F0A7F92846FFF728FF00220A21304600F04B
:206B60009FF90A213046FFF70EFF6079012805D12046253000F02DFA00206071A06A00280C
:206B800004D000212046A36AE26A984770BD0000B4050020AC05002070B50546A8003049FA
:206BA0000C58A8002F490E580B21304600F062F900280DD0206900280AD02846FFF792FF79
:206BC0000B213046FFF7DFFE01212620015570BD0C21304600F04EF900280DD06069002885
:206BE0000AD02846FFF77EFF0C213046FFF7CBFE022126200155EAE70121304600F03AF92D
:206C0000002805D0608B002802D0284600F02CF80021304600F02EF9002805D0208B002892
:206C200002D02846FFF7DAFE208B002815D100221146304600F034F901220A21304600F0CD
:206C40002FF9608B002808D10A21304600F012F9002802D02846FFF75BFF00BFB7E700006F
:206C6000B4050020AC050020FEB50546A80023490C58A80022490858029000BF0298C06D69
