:020000040000FA
:10A00000003800202DAB000065AB000067AB0000FE
:10A010000000000000000000000000000000000040
:10A0200000000000000000000000000069AB00001C
:10A0300000000000000000006BAB0000E58901009B
:10A04000E9040100F3040100FD040100070501001B
:10A050001105010071AB000071AB000071AB000095
:10A0600071AB0000C17601005DC10000F5C00000C9
:10A0700071AB000071AB0000F13A010071AB000060
:10A0800071AB000071AB000071AB000071AB000060
:10A0900071AB000071AB000071AB000071AB000050
:10A0A00071AB000071AB0000AD68010071AB000046
:10A0B00071AB000071AB000071AB0000F96E0100E4
:020000040000FA
:10A0C000070000000600000003000000010000007F
:10A0D00001000000FF070000FF070000FF0700006D
:10A0E000FF070000FF070000FF070000FF07000058
:10A0F0001E0300005A030000180300009300000034
:10A10000970000001E0300005A030000180300001F
:10A110009300000097000000FF070000FF07000009
:10A12000F2030000F2030000FF070000FF07000039
:10A13000FF070000FF070000FF070000FF07000007
:10A14000FF070000FF070000FF070000FF070000F7
:10A15000FF070000000000000000000000000907E9
:10A16000DF071E035A031803930097001E035A03C8
:10A170001803930097000907DF07F203F2030000BA
:10A1800000000000000000000000000000000000CF
:10A190000000000000010203040506070809090980
:10A1A000090A0A0A0A0B0B0B0B0C0C0C0C0D0D0DFB
:10A1B0000D0D0D0D0D0E0E0E0E0E0E0E0E0E0E0EC4
:10A1C0000E0E0E0E0E0F0F0F0F0F0F0F0F0F0F0FA4
:10A1D0000F0F0F0F0F000000004002402000000092
:10A1E0008025000000000001000000000009121B93
:10A1F000242D363F48415A536C657E7719100B0267
:10A200003D342F265158434A757C676E323B2029D6
:10A21000161F040D7A7368615E574C452B22393046
:10A220000F061D14636A7178474E555C646D767F26
:10A230004049525B2C253E3708011A137D746F6626
:10A2400059504B42353C272E1118030A565F444D96
:10A25000727B60691E170C053A3328214F465D5406
:10A260006B627970070E151C232A31384148535A06
:10A27000656C777E09001B122D243F3658514A43E6
:10A280007C756E671019020B343D262F737A616856
:10A29000575E454C3B3229201F160D046A637871C6
:10A2A0004E475C55222B3039060F141D252C373EA6
:10A2B0000108131A6D647F7649405B523C352E27A6
:10A2C00018110A03747D666F5059424B171E050C16
:10A2D000333A21285F564D447B7269600E071C1586
:10A2E0002A233831464F545D626B7079426D1C33BE
:10A2F000FED1A08F153A4B64A986F7D8ECC3B29D66
:10A30000507F0E21BB94E5CA07285976311E6F4055
:10A310008DA2D3FC66493817DAF584AB9FB0C1EE45
:10A32000230C7D52C8E796B9745B2A05A48BFAD535
:10A3300018374669F3DCAD824F60113E0A25547B25
:10A34000B699E8C75D72032CE1CEBF90D7F889A615
:10A350006B44351A80AFDEF13C13624D7956270805
:10A36000C5EA9BB42E01705F92BDCCE3A18EFFD0F5
:10A370001D32436CF6D9A8874A65143B0F20517EE5
:10A38000B39CEDC258770629E4CBBA95D2FD8CA3D5
:10A390006E41301F85AADBF4391667487C53220DC5
:10A3A000C0EF9EB12B04755A97B8C9E647681936B5
:10A3B000FBD4A58A103F4E61AC83F2DDE9C6B798A5
:10A3C000557A0B24BE91E0CF022D5C73341B6A4595
:10A3D00088A7D6F9634C3D12DFF081AE9AB5C4EB85
:10A3E00026097857CDE293BC715E2F00E100E20FA1
:10A3F000E326E437E502E600E7FBE8FBE9FBEA03D6
:10A40000EB01000C02000000000000000000000052
:10A4100006000000070000000E0000000900000018
:10A420000D0000000C000102009004400400000038
:10A43000000000010000000000F00F4000000000DC
:10A4400000B0044004000000000000010000000013
:10A4500080F00F4000000000009004400400000065
:10A46000000000010000000000F00F4001000000AB
:10A4700000B00440040000000000000100000000E3
:10A4800080F00F400100000000B004400600000012
:10A49000000000010000000080F00F4001000000FB
:10A4A000009004400D0000000000000100000000CA
:10A4B00000F00F400100000000A004400000000078
:10A4C000000000010000000040F00F40010000000B
:10A4D00000900440000000000000000100000000A7
:10A4E00000F00F400100000000A004400100000047
:10A4F000000000010000000040F00F4001000000DB
:10A500000090044001000000000000010000000075
:10A5100000F00F4001000000009004400A0000001D
:10A52000000000010000000000F00F4001000000EA
:10A5300000B0044005000000000000010000000021
:10A5400080F00F400100000000C004400200000045
:10A550000000000100000000C0F00F4001000000FA
:10A5600000C00440030000000000000100000000E3
:10A57000C0F00F400100000000B0044007000000E0
:10A58000020001010000000080F00F400000000008
:10A5900000B00440090000000200010100000000BA
:10A5A00080F00F4000000000009004400700000011
:10A5B000020001010000000000F00F400000000058
:10A5C00000B0044003000000000000030000000091
:10A5D000000000000000000000B004400200000085
:10A5E0000000000300000000000000000000000068
:10A5F000009004400300000002000006000000007C
:10A600000000000000000000009004400200000074
:10A610000200000600000000000000000000000032
:10A6200000C0044010000000000000010000000015
:10A63000C0F00F400100000000C004400F00000007
:10A640000000000200000000000000000000000008
:10A6500000A0044004000000000000010000000011
:10A6600040F00F4001010000010000000100000067
:10A670000000F5FF0000000008ED00E000B003401E
:10A680001C000000000000000000000000000000AE
:10A6900000000000000000000000000000000000BA
:10A6A00000000000000000000000000000000000AA
:10A6B000000000000000000000000000000000009A
:10A6C000000000000000000000000000000000008A
:10A6D00000000000000073003200210049004A0021
:10A6E0004B004C004D003D000000240036000000EF
:10A6F000200000003800390000003B005A006600CE
:10A7000037002C0040006A006B00000000000000D1
:10A710000000000000000000000000000000000039
:10A7200000000000000000000000004141414141E4
:10A7300000000000000000202020202020202020F9
:10A740000040400080004848003030303030363023
:10A7500030000000000100010300010102010100BE
:10A7600000010001030001010201010000000000DE
:10A77000000000000000000000093D0000093D004D
:10A7800040420F0000093D0000093D0040420F001B
:10A7900000093D0000093D0040420F00000000009C
:10A7A00000000000000000000000000000000000A9
:10A7B0000000000000093D0000093D0040420F007C
:10A7C00000000000000000000000000000B4C4040D
:10A7D000006CDC02B0F3960100B4C404006CDC022F
:10A7E000B0F3960100B4C404006CDC02B0F396012F
:10A7F0000000000000000000000000000000000059
:10A80000000000000000000000B4C404005A62020E
:10A81000B0F39601006CDC020000010001030001AE
:10A8200001020101000102030405060708090A0BE1
:10A830000C0D0E0F00000102030405060708090AAB
:10A840000B0C0D0E0F0000010001030001010201BD
:10A8500001000000002005401600000000800040BC
:10A8600000100240000102030400000000800340C9
:10A87000009003400C0C0C0C0C0C0C0C0F0F0F0F69
:10A880000F0F0F0F0D100E110E1115381639000095
:10A89000C80028006400E803E8036400000000002A
:10A8A000F40188138813F401F401F401E80310277C
:10A8B0001027E803E803E80355EA000053EA000024
:10A8C000B1EA0000F5EA0000F5EA0000F5EA000050
:10A8D0002C01B80BB80B2C01C201C2010980AD00DC
:10A8E0000280AD000981AD000982AD000983AD0091
:10A8F0000984AD000985AD000986AD000404040497
:10A900000404040404040404040404040101010113
:10A910000101010101010101010101010101010127
:10A920000101010100000000000000000000000023
:10A930000000000000000000000000000000000017
:10A94000000000002023042100000000000000009F
:10A9500000000000000000000000000000000000F7
:10A960000000000000000000000000000000FF23C5
:10A970000421000000000000303030303030303032
:10A980003030303030303030300000000000000017
:10A9900000000000000000000000000000000000B7
:10A9A00000000000000000000000000000000000A7
:10A9B0000000000000000000000000159D77F6294F
:10A9C000923E50620D58E6D046714200A49F0100AD
:10A9D000C000002078070000A2B3000050A40100CE
:10A9E000AC1B00208800000040AA000050A4010019
:10A9F00038080020741300005CAA000000F002F880
:10AA000000F03EF80CA030C8083824182D18A246D3
:10AA1000671EAB4654465D46AC4201D100F030F8AB
:10AA20007E460F3E0FCCB6460126334200D0FB1ABD
:10AA3000A246AB463343184794FFFFFFC4FFFFFF16
:10AA4000103A02D378C878C1FAD8520701D330C877
:10AA500030C101D504680C60704700000023002459
:10AA600000250026103A01D378C1FBD8520700D345
:10AA700030C100D50B6070471FB51FBD10B510BDAC
:10AA800003488546FFF7F8FF0FF094F800F04AFC02
:10AA90000038002003B4FFF7F1FF03BC00F07AFC9C
:10AAA00070B505460C46164602E00FCC0FC5103EA9
:10AAB000102EFAD2082E02D303CC03C5083E042E72
:10AAC00007D301CC01C5361F03E021782970641C2F
:10AAD0006D1C761EF9D270BDC00000000000002081
:10AAE00000A0000000A00000C0A000001CA7010002
:10AAF000A4A70100AC1B0020AC1B0020341C0020CC
:10AB00000020002000200020C0000020C000002005
:10AB100038080020A49F01001CA7010000FCFF1FB3
:10AB200000FCFF1F000000200038002072B6114911
:10AB30000968114A1268521A013A05DD00200423FF
:10AB400008601944043AFBDA00BF0C480C49016064
:10AB50000A6882F308880B4880470B48804762B632
:10AB60000A488047FEE7FEE7FEE7FEE7FEE7FEE76E
:10AB7000FEE7000024AB000028AB000008ED00E079
:10AB800000A00000FD8A0100719B0100FDA90000EA
:10AB9000F8B5042A2CD3830712D00B78491C037014
:10ABA000401C521E83070BD00B78491C0370401CBD
:10ABB000521E830704D00B78491C0370401C521EA0
:10ABC0008B079B0F05D0C91ADF002023DE1B08C9A5
:10ABD0000AE0FFF765FFF8BD1D4608C9FD401C46A9
:10ABE000B4402C4310C0121F042AF5D2F308C91A2E
:10ABF000521EF0D40B78491C0370401C521EEAD43C
:10AC00000B78491C0370401C012AE4D409780170B8
:10AC1000F8BD01E004C0091F0429FBD28B0701D550
:10AC20000280801CC90700D00270704700290BD039
:10AC3000C30702D00270401C491E022904D38307B7
:10AC400002D50280801C891EE3E70022EEE7002285
:10AC5000DFE7002203098B4273D3030A8B4258D3E8
:10AC6000030B8B423CD3030C8B4221D312E00346EF
:10AC70000B437FD4002243088B4274D303098B42D9
:10AC80005FD3030A8B4244D3030B8B4228D3030CBC
:10AC90008B420DD3FF22090212BA030C8B4202D35E
:10ACA0001212090265D0030B8B4219D300E0090A86
:10ACB000C30B8B4201D3CB03C01A5241830B8B428F
:10ACC00001D38B03C01A5241430B8B4201D34B0378
:10ACD000C01A5241030B8B4201D30B03C01A5241DD
:10ACE000C30A8B4201D3CB02C01A5241830A8B4262
:10ACF00001D38B02C01A5241430A8B4201D34B024B
:10AD0000C01A5241030A8B4201D30B02C01A5241AE
:10AD1000CDD2C3098B4201D3CB01C01A5241830962
:10AD20008B4201D38B01C01A524143098B4201D39C
:10AD30004B01C01A524103098B4201D30B01C01AC7
:10AD40005241C3088B4201D3CB00C01A5241830841
:10AD50008B4201D38B00C01A524143088B4201D36E
:10AD60004B00C01A5241411A00D2014652411046CE
:10AD700070475DE0CA0F00D04942031000D3404243
:10AD8000534000229C4603098B422DD3030A8B4279
:10AD900012D3FC22890112BA030A8B420CD3890117
:10ADA00092118B4208D3890192118B4204D38901FD
:10ADB0003AD0921100E08909C3098B4201D3CB013B
:10ADC000C01A524183098B4201D38B01C01A5241F0
:10ADD00043098B4201D34B01C01A524103098B42F4
:10ADE00001D30B01C01A5241C3088B4201D3CB00DF
:10ADF000C01A524183088B4201D38B00C01A5241C2
:10AE0000D9D243088B4201D34B00C01A5241411A98
:10AE100000D20146634652415B10104601D34042C6
:10AE2000002B00D54942704763465B1000D3404277
:10AE300001B50020C046C04602BD00000246C80F52
:10AE4000C00781434B0030B54B405B009B0D20D0C9
:10AE50001923DB06C91801231B05994220DB0324B3
:10AE6000A40704251346AB400BD3002B04D1EB06FB
:10AE700013409B00E34204D4012464070023121909
:10AE80005941FF231B0599420BD2C9000143500FC2
:10AE900009E0CB0204D501430803024305D005486D
:10AEA00030BDFF21C905084330BD0846072109050B
:10AEB000884330BD0000C07F1F22030C02D10F2247
:10AEC000000402D0030E03D004E0002001467047C6
:10AED0000002083A030F01D10001121F830F01D1B4
:10AEE0008000921E002801DB4000521E12055118FE
:10AEF0004205C012411810467047C10FC90700D063
:10AF00004042012292071143D6E701218907D3E786
:10AF1000F0B58B4C0F09254689B0BD437BD01D0988
:10AF20002646AE43FAD00E465E402740F60F3E431B
:10AF3000254071D024012142FBD0FF24AD19A40487
:10AF40002D1B039501252D05DB02DB0AC9022B43CE
:10AF5000C90A29431E010901040F130F05012143EA
:10AF60001701880B820391432D098C46A90B1E43C0
:10AF70008A039543B30B9A0396433F09BA0B940394
:10AF8000A74302962E467E430497B6464E19D7191C
:10AF90000C460196544305977E43371B7646BF1BEC
:10AFA0003601B646BE0B361900967646BC043719F4
:10AFB000009C01D3641C00946400002F01D0012682
:10AFC0003443029E049F754366467E430496760092
:10AFD00034196E0034190094029C019E1C196643BA
:10AFE000751BAE46069465464519059C05956C4350
:10AFF000594375460891691A0191049E01465143CF
:10B00000A41B0491611A009C0791E10605D0610917
:10B010000122114302E072E06EE06109089D002701
:10B020002C0A2D066918049D7C412A0A2D066918F0
:10B03000019D6241AC0DAD026D185441079A910D0E
:10B04000920255196141029A644658435443069B43
:10B05000059A5A43121A131B9A0E9B015B187A41E8
:10B06000010B0005C3185141220A200644195A4118
:10B070009A4200D2491C01204002814203D3152389
:10B080000226F64302E014230326F6432020C51AC5
:10B09000A9401746AF40DA400A4320460399D840FA
:10B0A0000914731819055118039A3843D2075140EF
:10B0B000AC4009D00122944006D30022401C5141EB
:10B0C000002C01D1400840001E4A934212D30122B5
:10B0D00003989206904207DB0520400709181A489A
:10B0E0000143C012414004E0032040070818C10F8B
:10B0F000C907002009B0F0BD0020F107FAE70518E4
:10B100000C464C4111486D42A04115D394181A4683
:10B110005A410E48644290410ED301204A00400536
:10B12000824209D35A00824206D35940C90F084AC5
:10B13000C90700201143DDE700200649DAE70000D7
:10B140000000FF07FE070000FFFFFF7F0000E0FF99
:10B150000000F07F0000F87F0121C905012341189C
:10B1600042001B06D3185B0E0AD0C1100722D2067C
:10B17000891840075242D14201D5520089187047C0
:10B18000090208D50146002A03D0C10FC9070020D3
:10B19000704710467047420202D0002002497047B3
:10B1A000072109050143F4E70000F87F0102C215F9
:10B1B00004D00123DB071943002A0ADB9E239A1AD5
:10B1C00002D40846D0407047FF2241001206914247
:10B1D00001D900207047C017C0437047F8B5224C12
:10B1E0004E00069DA6420AD8A64201D1002806D1EB
:10B1F0005E00A64203D8A6420AD1002A08D00D2438
:10B20000240425422CD02946002000F061F8F8BD26
:10B210000C461C430CD4994202D0EFF30080F8BDD9
:10B22000904202D0EFF30080F8BDEFF30080F8BD4C
:10B2300009242407E5008B4206D0EFF30080A043E9
:10B24000591A06D2284304E0101A05D3EFF3008000
:10B25000A04380F30088F8BDEFF30080A043F1E73E
:10B26000009500F04DF8F8BD0000E0FF10B5FF2399
:10B270001B0644009C421DD84C009C421AD8034631
:10B28000124A0B4307D4401A02D3EFF3008010BDDB
:10B29000EFF3008010BD081A06D2EFF30080012101
:10B2A0009043C907084302E0EFF30080904380F326
:10B2B000008810BD0D231B041A4204D01146002043
:10B2C00000F006F810BD00F025F810BD0000009059
:10B2D000C80212D54803400F002804D0C803C04359
:10B2E000012188407047EFF300800001000903212D
:10B2F0000907084380F3008870470020704700006A
:10B3000010B500200249029A00F014F810BD0000A8
:10B310000000F87F10B5024800F00CF810BD0000E6
:10B320000000C07F10B50446C046C0462046FFF767
:10B33000B1FB10BD10B50C461107090F092904D047
:10B340000A290AD008290CD104E011460820FFF789
:10B35000BFFF06E0510606D501E0510601D50120E8
:10B36000C007214610BDD10607D501010909CC0847
:10B370004907000E0006044309E0410F2002490777
:10B38000000A0143200E00061D22D1410143084658
:10B39000E7E7000001491820ABBEFEE726000200E7
:10B3A000704770B58C180578401C6B075B0F01D196
:10B3B0000378401C2A1106D10278401C03E006786D
:10B3C000401C0E70491C5B1EF9D12B0705D40023CD
:10B3D000521E0DD40B70491CFAE70378401CCB1A9F
:10B3E000921C03E01D780D70491C5B1C521EF9D5A0
:10B3F000A142D8D3002070BD03B40148019001BD23
:10B40000AD1B0020F8B505460E461446A8000449B9
:10B410000F58237862883146384600F03FF9F8BD6E
:10B420007CA60000FEB506460C46B00034490D5817
:10B4300034A0006802900020019002A9885D01A953
:10B4400001F022FF009022780120904001460198EF
:10B45000FFF7FFFB01902178284600F0F9F86178AA
:10B46000284600F079F9A178286C0C2302469A430B
:10B4700010468A001A401043286400BFE178286C07
:10B48000800880008A07920F1043286400BF21794A
:10B49000284600F07DF96179304600F037F9A1794E
:10B4A000304600F083F9E179902250590423024696
:10B4B0009A4310468A001A4010439022505100BF10
:10B4C000217A5059800880008A07920F10439022F9
:10B4D000505100BF617A94225059082302469A4382
:10B4E0001046CA001A4010439422505100BF002E4B
:10B4F00005D1054FA17A384600F03DF900BFFEBDE9
:10B500007CA600003B0000000080044070B50546AA
:10B510000C46A80005490E582178304600F0A4F8E2
:10B520006178304600F0AEF870BD00007CA60000E7
:10B5300070B503469D00054E74598E00254648356A
:10B54000A8590005000D108070BD00007CA6000009
:10B550008100084B5A5800BF00BF902399588023A0
:10B560000B40D909002901D0012300E00023012B61
:10B57000F2D070477CA6000010B520480078002863
:10B5800002D0012836D10CE01D48007880001D490A
:10B590000A5800210846FFF735FF012017490870B7
:10B5A00029E00020FFF7D4FF154800784000164935
:10B5B000421800210846FFF7BBFF11480078400001
:10B5C0001149421800210846FFF7B2FF0C480078E5
:10B5D000401CC0B20A490870062801DB0020087030
:10B5E00007480078800007490A5800210846FFF7FD
:10B5F00009FF00E000BF00BF10BD0000E400002014
:10B60000E5000020CC000020E208002010B50C4925
:10B610000020FFF707FF0B490020FFF777FF0A4ADA
:10B6200000210846FFF7EEFE002405E0002061003F
:10B63000064A5052601CC4B2062CF7DB10BD000055
:10B6400002A4000026A400000EA40000E2080020CE
:10B6500010B50A46016C60240B46A34319465301FA
:10B6600023401943016410BD10B50A4694231958AC
:10B6700004240B46A3431946930023401943942303
:10B68000195010BD0A469423195889088900930758
:10B690009B0F19439423195070470000FFB582B0E7
:10B6A00004460F252D02AA4219DB6D1DAA4216DCA5
:10B6B0006D1F551B0195144D00956D6807263604C6
:10B6C000B543114E756035466D68019E36040727F7
:10B6D0003F043E4035430C4E7560152300E0134691
:10B6E0008D00605940094001DD06ED0E28434026DB
:10B6F0000546B5432846059DAD01354028438D00DC
:10B70000605106B0F0BD00000080044078B5114BD8
:10B71000002400943024009400221C46A469850073
:10B720006E467559AC432246002802D001280BD141
:10B7300004E00C0130252C40224306E00C030325D5
:10B740002D032C40224300E000BF00BF014CA2614A
:10B7500078BD00000080044010B50A46002A01D0E0
:10B76000144600E001242346416C090A0902DCB2B8
:10B770002143416410BD012904D14268CB041A431E
:10B78000426004E042680123DB049A434260704750
:10B7900010B50A469023195840240B46A343194676
:10B7A0009301234019439023195010BD78B5104BD5
:10B7B000002400940124009400221C46A469850002
:10B7C0006E467559AC432246002802D001280AD1A2
:10B7D00003E0CC07E40F224306E00C02FF2501350D
:10B7E0002C40224300E000BF00BF014CA26178BDA5
:10B7F0000080044010B51549088800210EF084F936
:10B800001249488801210EF07FF9104988880221E9
:10B810000EF07AF90D49C88803210EF075F90B492D
:10B82000088904210EF070F90849488905210EF0B5
:10B830006BF909F0D7FE00F0BDF800F009F800F050
:10B8400047F800F087F800F09DF810BDE2080020EE
:10B85000FEB51A480088002800D1FEBD0020184916
:10B8600048608860174840780007C00F002823D040
:10B8700012480088FFF749FB0446134A134BFFF7B1
:10B8800047FB06460F460E49C868FFF765FC32467F
:10B890003B46019100900EF09FFA0DD207480088B8
:10B8A000FFF733FB0646084A084BFFF731FB044617
:10B8B000FFF7C4FA0249C86000BFCEE7420100208A
:10B8C000F00800203A090020E9263108AC1CAA3F04
:10B8D000F8B51B480088002800D1F8BD1948407809
:10B8E0008006C00F002811D0002017498860144836
:10B8F0000088FFF70AFB0646144A154BFFF708FBC2
:10B900000446FFF79BFA1049486016E00D4840785E
:10B91000C006C00F002810D000200B49486008481E
:10B920000088FFF7F2FA0446084A094BFFF7F0FADD
:10B930000646FFF783FA0449886000BFCDE70000A0
:10B94000420100203A090020F0080020E9263108D1
:10B95000AC1CAA3FF8B50749C888FFF7D6FA0446D9
:10B96000054A064BFFF7D4FA0646FFF767FA044983
:10B970000861F8BDE20800200612143FC6DCEF3F64
:10B98000F0080020F8B507494889FFF7BEFA0446D9
:10B99000054A064BFFF7BCFA0646FFF74FFA044983
:10B9A0004861F8BDE20800200612143FC6DCEF3FF4
:10B9B000F0080020F8B523480088FFF7A6FA0646ED
:10B9C000214A224BFFF7A4FA0446FFF737FA204931
:10B9D00008600868FFF7C0FB044600221D4B0EF00C
:10B9E000FBF905D91A4908681B490EF0AFFA14D8BB
:10B9F0001A480078FF2804DA18480078401C1749D4
:10BA00000870164800781E281ADD154800790421B0
:10BA10008843001D1249087112E00D490868FFF7BC
:10BA20009BFB04460F4A104B0EF008FA08D80C484E
:10BA30000079042188430A490871002007490870E9
:10BA4000F8BD00004801002079E9263108ACAC3F80
:10BA5000F008002000002140000088417C01002007
:10BA60003A090020CDCCCCCCCCCC2540F0B585B06B
:10BA7000044600206D460021820052198B001B18DD
:10BA8000E35C5354491C0429F8DB401C0428F2DB16
:10BA90001449684600F046F80126124F68460CF03B
:10BAA00081FE68460CF03CFE0A2E02D068460BF080
:10BAB00066FC3001C119684600F034F8761C0A2E85
:10BAC000ECDD00200021820052198E00535C3618F4
:10BAD000A355491C0429F8DB401C0428F2DB20464E
:10BAE00005B0F0BDFC1A002070B50546FF240134F6
:10BAF000224607490748FFF74BF822460649074800
:10BB0000FFF746F8064928460AF09EF870BD000087
:10BB100037060020FC18002037070020FC19002001
:10BB2000FC1A002070B4002200239D002C186D1810
:10BB3000A65CAD5C6E40A6545B1C042BF5DB521C6E
:10BB4000042AF1DB70BC704710B547480078400705
:10BB5000C00F002800D010BD43488078C0090028DD
:10BB60000BD0414800794007C00F002805D13E485E
:10BB70004078C007C00F002811D03C4880880221BF
:10BB800088433A49888038480078402188433649BC
:10BB900008700022114636480BF0CCFCDBE7354834
:10BBA000002141560A294FDC2F480078C00900289F
:10BBB00015D02D4800784021884340302A4908702C
:10BBC0000846007810218843274908700122002187
:10BBD00027480BF0AFFC00202749088042E02648A8
:10BBE0000088401C24490880084600882349884270
:10BBF00012DC1D4800784021884340301A49087003
:10BC00000846007810218843174908700122002156
:10BC100017480BF08FFC13E017480088184988423A
:10BC20000BDA11480078402188430F490870002240
:10BC300011460F480BF07EFC02E000200E49088000
:10BC40000020104908800DE000200B4908800648BC
:10BC500000784021884304490870002211460448B6
:10BC60000BF068FC00BF76E73A09002004030020CF
:10BC700040F00F400003002074040020C05D00006D
:10BC8000A08C00007604002010B50BF05FFF0BF0D5
:10BC900061FE10BD10B50BF0E3F810BD10B59B4868
:10BCA000C0788007C00F002803D198484079002849
:10BCB0006CDD9748007840084000401C94490870AB
:10BCC000924840794006C00F002803D001209149D6
:10BCD00008704DE08D484079C009002803D002204B
:10BCE0008C49087044E08948C0788007C00F00285C
:10BCF00003D00320874908703AE084484079C007A0
:10BD0000C00F002803D01F208249087030E07F4810
:10BD100040798007C00F002803D020207D4908709B
:10BD200026E07A4840794007C00F002803D0212040
:10BD3000784908701CE0754840790007C00F00285A
:10BD400003D022207349087012E070484079C00681
:10BD5000C00F002803D023206E49087008E06B480C
:10BD600040798006C00F002802D02420694908705D
:10BD70006648C078022188436449C8700020487131
:10BD80006549087065490880654908806048007801
:10BD9000C007C00F002871D05E48007801280ED17E
:10BDA0005D4B5F4A5D495F4800F0D0F8012805D13E
:10BDB000574800784008400055490870A4E05548AD
:10BDC000007802280ED1544B554A5449564800F089
:10BDD000BDF8012805D14E480078400840004C4984
:10BDE000087091E04B48007803280ED14A4B4C4A2A
:10BDF0004A494E4800F0AAF8012805D14448007885
:10BE000040084000424908707EE0424800781F2800
:10BE10000ED1414B424A4149454800F097F801286C
:10BE200072D13B48007840084000394908706BE007
:10BE30003848007820280ED1374B394A37493D48D9
:10BE400000F084F801285FD13148007840084000B4
:10BE50002F49087058E02F48007821280FD12E4B29
:10BE60002F4A2E49344800F071F801284CD1284857
:10BE70000078400840002649087045E038E0254831
:10BE8000007822280ED1244B254A24492B4800F063
:10BE90005DF8012838D11E480078400840001C4950
:10BEA000087031E01B48007823280ED11A4B1C4A39
:10BEB0001A49234800F04AF8012825D1144800788F
:10BEC00040084000124908701EE0124800782428FB
:10BED0001AD1114B124A11491A4800F037F80128BB
:10BEE00012D10B48007840084000094908700BE067
:10BEF0000021154801611448403080698021884341
:10BF0000803011494031886110BD00003A0900209D
:10BF1000C4020020C5020020CA020020C602002080
:10BF2000C802002088010020B0010020D8010020B4
:10BF30001002002060020020700200208002002019
:10BF400090020020A002002000800340F0B587B0DE
:10BF500005460E4617461C462078FF2802D10120D0
:10BF600007B0F0BD2178C90049198888FEF7CDFFD8
:10BF7000564A574B01910090FEF7CAFF0591049075
:10BF80003088FEF7C2FF03910290059B049A0DF0E2
:10BF900023FF41D2012210214E480BF0CBFA20782A
:10BFA000C00028584C49096888421AD02078C0003F
:10BFB0002858494908602078C00029584748FEF7AA
:10BFC00048FE47498968090C0904084344498860C8
:10BFD0004348403080698021884380304049403167
:10BFE000886140480168404800680DF05BFF0FD051
:10BFF0003D4800683B4908603C4939480161384880
:10C0000040308069802188438030354940318861E3
:10C010003088401C308057E02178C9004919C88811
:10C02000FEF773FF294A2A4B01910090FEF770FF3B
:10C03000059104903888FEF768FF03910290059BF4
:10C04000049A0DF0C9FE20D20022102121480BF0E5
:10C0500071FA24480168244800680DF023FF10D0CD
:10C06000214800681F490860012149031C480161FB
:10C070001B48403080698021884380301849403116
:10C0800088613888401C38801EE02078401C207071
:10C090000020308038802078C00028581449884219
:10C0A00012D1FF20207000200E49086000210C48AA
:10C0B00001610B4840308069802188438030084905
:10C0C0004031886101204BE7002049E79A9999990E
:10C0D0009999C93FC0F00F40BC020020005A62028B
:10C0E00000800340C0020020B8020020550F00006D
:10C0F000FFFFFF001FB505242AE01748006B012150
:10C10000A140084000281ED02146134807F014FB28
:10C110006A462146104807F0C3FC009800680001F9
:10C12000000F022802D1684600F008FA00980F229A
:10C1300012060168914301229206891801600120CC
:10C14000A04005490863044807F000FB601CC4B226
:10C15000202CD2DB1FBD00000040024010B50F486C
:10C16000006A04210840002804D004200B4908621A
:10C1700003F082F90948006A02210840002802D031
:10C180000220064908620648806803210904084025
:10C19000002802D008460249886010BD00400240D5
:10C1A000004B024010B5D44989780906C80FD3491D
:10C1B0000978490849000143D04A1170CE4989786D
:10C1C0004900022211400846CC49097891430143B5
:10C1D000CA4A1170C84909788906C90F002901DDCA
:10C1E000012100E00021880004221040C3490978A1
:10C1F00091430143C14A1170BF4949780906C90FEB
:10C20000C900082211400846BC49097891430143FE
:10C21000BA4A1170B8484078C006C00F002803DD44
:10C22000B7490220085602E0B54903200856B34931
:10C230004870B448007828308870B3488078C87057
:10C24000AD49097AC807C00FAC49097949084900C6
:10C250000143AA4A1171A849897949000222114073
:10C260000846A649097991430143A44A1171A2499C
:10C2700089798907C90F89000422114008469F491E
:10C280000979914301439D4A117110460DF02CFC30
:10C290009E4800784007C00F002805D196480078D6
:10C2A0008006C00F00282DD0994988680121890790
:10C2B0000DF022FE05D39649886896490DF046FE9A
:10C2C0000AD29548C0889549884208DA9248C088C1
:10C2D000401C9149C88002E000208F49C8808748EF
:10C2E0000078042188438C49C9888D4A914201DD38
:10C2F000012100E0002189000422114008437F4908
:10C30000087002E000208449C8807B48407800071C
:10C31000C00F002826D07E49C86882490DF0ECFD88
:10C3200005D37B49C86880490DF010FE10D27348D0
:10C3300000781021884310307049087076484079A1
:10C34000FF2812DA74484079401C734948710CE0A8
:10C350006A480078102188436849087000206C49B9
:10C36000C86002E000206C49487168480078800687
:10C37000C00F002804D160484078C009002828D0A8
:10C380006349486969490DF0B7FD05D360494869BB
:10C3900067490DF0DBFD10D258480078082188432A
:10C3A0000830564908705C480079FF2814DA5A486A
:10C3B0000079401C584908710EE050480078082167
:10C3C00088434E490870002051494861524908711C
:10C3D00002E00020504908714C480078C006C00FA8
:10C3E00000280BD1444840788006C00F002805D1B2
:10C3F00041484078C006C00F00282ED03E48C07982
:10C40000C007C00F002828D04149086947490DF0EE
:10C4100073FD05D33E49086945490DF097FD10D2DB
:10C4200036480078202188432030344908703A4843
:10C43000C078FF2814DA3848C078401C3649C870E4
:10C440000EE02E480078202188432C4908700020F7
:10C450002F4908613049C87002E000202E49C87099
:10C460002648C078F0280ADD2B4800892B498842ED
:10C4700008DA29480089401C2749088102E0002089
:10C48000254908811D480079C007C00F002809D040
:10C4900021488078FF2808DA1F488078401C1E4910
:10C4A000887002E000201C498870144800798007D9
:10C4B000C00F002809D018480078FF2808DA16486D
:10C4C0000078401C1449087002E0002012490870EE
:10C4D0000A4800794007C00F002809D00E4840786C
:10C4E000FF2808DA0C484078401C0B49487002E0ED
:10C4F00000200949487010BD3A0900204409002075
:10C5000010030020000300201A0300202303002052
:10C51000F00800200000C040B2090020FFFF00002A
:10C52000B80B000000004040000010410000A04097
:10C530000000C84210B506F06DFE10BD70B504468F
:10C540003448857801468978481CC117090F0918B5
:10C5500009110901411A2F4A917010460079401CB7
:10C560001146087160680068C000410D2A01294821
:10C57000083010184160206800680003010F2A018C
:10C58000244808301018C170A0680068010E2A0104
:10C590002048083010180172A06800680002010EDF
:10C5A0002A011C48083010184172A0680088000455
:10C5B000010E2A011748083010188172A06801780E
:10C5C0002A01144808301018C172E0680068010E92
:10C5D0002A011048083010180173E0680068000252
:10C5E000010E2A010B48083010184173E0680088DA
:10C5F0000004010E2A010748083010188173E06812
:10C6000001782A01034808301018C17303F0E4FBD5
:10C6100070BD0000280A002038B504460D46E078B9
:10C620000090606882B2234608332946024807F02A
:10C6300083F9012038BD0000004002407CB5FE4D6A
:10C6400068460DF03FFA00287BD00DF033FAFB4826
:10C6500000784007C00F002807D0F848007A08216A
:10C6600088430830F54908727CBDF3482030007CCF
:10C67000282867DB0021F048203001742038C0787A
:10C68000C006800F01280DD1EC4840794021884335
:10C690004030EA4948710846807840084000401C14
:10C6A000887011E0E448C078C006800F02280BD1E2
:10C6B000E2484079402188434030E04948710846CB
:10C6C0008078400840008870DB48C0788006C00F42
:10C6D00000280DD1D9484079402188434030D749BE
:10C6E000487108464078082188430830D34948708B
:10C6F000D148C0784007400F03280ED1CF4880783A
:10C70000C009002808D0CD48807880218843803037
:10C71000CA49887009F032FCC0E0C748C0784007B9
:10C72000400F04280FD1C5488078C0090028F3D1F4
:10C73000C248807880218843C049887009F01EFC77
:10C74000ACE00EE2F9E1BC48C0784007400F022897
:10C750004FD1BA488078802188438030B7498870AB
:10C760000846007880218843B4490870084640781C
:10C77000C006C00F002834D10846407820218843E5
:10C78000AE49487008464078102188431030AB49C4
:10C7900048704978C906C90F8901402211400846EE
:10C7A000A749497891430143A54A5170A349497863
:10C7B0008906C90F4901202211400846A04949783D
:10C7C000914301439E4A5170104640780009000190
:10C7D000401C114648709948807802218843974947
:10C7E0008870964840794021884340309349487189
:10C7F00054E09148C0784007400F01284ED18F483F
:10C8000080788021884380308C4988700846007881
:10C810008021884389490870084640788006C00F07
:10C82000002834D1084640782021884320308349AD
:10C8300048700846407810218843804948704978FC
:10C84000C906C90F89014022114008467C49497830
:10C85000914301437A4A5170784949788906C90F52
:10C860004901202211400846754949789143014306
:10C87000734A51701046407800090001401C11466F
:10C8800048706E488078022188436C4988706B48F4
:10C890004079402188434030684948716648807833
:10C8A0004E287FDB644880785F287BDC6248807894
:10C8B000283840B2624988700846022141565E48D5
:10C8C0008078283881420CD05D484078000900010A
:10C8D000401C5B4948705948807802218843574979
:10C8E000887056484078C006C00F002834D153489D
:10C8F00040782021884351494870084640781021EB
:10C90000884310304D4948704978C906C90F8901DC
:10C910004022114008464A49497891430143484A18
:10C920005170464949788906C90F490120221140B2
:10C9300008464349497891430143414A51701046A2
:10C94000407800090001401C114648703B4880783F
:10C950000221884339498870394880782D280AD1C6
:10C960000B203849C8703548807808218843083042
:10C97000324988700DE032488078372809D10C2080
:10C980003049C8702D4880780821884308302B49E9
:10C9900088702A484079402188434030274900E088
:10C9A00000E04871244880781B287DDB224880788D
:10C9B000372879DC2248032141561F4880782838DF
:10C9C00081420CD01E48407800090001401C1C49DF
:10C9D00048701A48807802218843184988701648A0
:10C9E0008078283840B21649C870144840788006CC
:10C9F000C00F00283DD111484078202188432030C5
:10CA00000E49487008464078102188430B49487009
:10CA10004978C906C90F89014022114008460849D2
:10CA2000497891430143064A51700449497889067F
:10CA3000C90F4901202207E0800900203A0900209F
:10CA40001003002028030020114008464C49497873
:10CA5000914301434A4A5170104640780009000151
:10CA6000401C114648704748807802218843454958
:10CA70008870434903200856401C00281AD14148B9
:10CA800000788021884380303E49087001203E496B
:10CA9000C8703C488078082188430830394988703C
:10CAA0000846C079102100E036E08843103035494F
:10CAB000C8712AE03248C078042811D102203249D6
:10CAC000C870304880780821884308302D49887024
:10CAD0000846C0791021884310302A49C87114E0F3
:10CAE0002748C078092810D103202749C870254855
:10CAF0008078082188430830224988700846C07928
:10CB00001021884310301F49C8711E4840794021C8
:10CB1000884340301B494871002404E000206946E6
:10CB20000855601CC4B2082CF8DB012168460CF0E3
:10CB300041FC68460CF0D2FF0FE000240BE0684691
:10CB4000015D1248027C007C401CC3B20F48037494
:10CB5000A954601CC4B2082CF1DB00210B484174BD
:10CB60000BE00A48407C401CC1B208484174407C3C
:10CB70001E2802DD00210548017400BF74E5000095
:10CB8000100300203A09002028030020A0090020FB
:10CB900070B505460E46122D05DA3146284600F0DE
:10CBA00091FC044610E0222D05DA3146284600F0BB
:10CBB0004DFD044608E0442D05DA3146284600F0D4
:10CBC0009DFB044600E00424204670BD70B59EB075
:10CBD00005462C46002D03D1684600F093FA6C46BA
:10CBE000204600F0A1FF0646002E0BD120466C30F7
:10CBF00000F044FF2046443000F0DAFF2046743055
:10CC000000F072FF30461EB070BD000070B50446E3
:10CC10000025222C09DD322C07D0352C05D0372CED
:10CC200003D03A2C01D0432C01D1042509E0214640
:10CC300005480AF0FDFB002802D1FF25013500E080
:10CC40000025284670BD000000500640F3B585B0B1
:10CC50000E4600200490002E0BD10121684641733E
:10CC6000002181730121417281720021017202ACA5
:10CC700000E0344600BF37490322120289180868D1
:10CC8000012149060140480E002801D0012100E0A1
:10CC90000021002902D00220049016E000BF2D4898
:10CCA00003210902401800680121C9058843294968
:10CCB000032212028918086000BF00BF012080060D
:10CCC00024498918086000BF00BF059800283ED09D
:10CCD000049800283BD16078A1784207520F0B02DC
:10CCE00007273F023B401A4301921A4B03273F029A
:10CCF000DB19019A5A6000BF20788107890F154A15
:10CD00003B46D218916000BF6079A1790122424070
:10CD1000D20008231A4001231A43CB050127FF053F
:10CD20003B401A4301920B4B03273F02DB19019A48
:10CD30001A6000BF142500E06D1E00F087FA00287D
:10CD400001D1002DF8D1002D01D1032004900498C9
:10CD500007B0F0BD00400640F8B504460026E07874
:10CD6000214600F07BF80646002E05D1607F214663
:10CD7000103100F0EBF8064600F0AEF9012802D0C1
:10CD8000022806D102E02546363504E025463A352C
:10CD900001E0002500BF00BF002E5AD1E87803282B
:10CDA00044D10126607F002813D0012E11D101212A
:10CDB0006846C17028488179684681702648C179E3
:10CDC000684641702448017A6846017001F028F8ED
:10CDD0000646E078002813D0012E11D102216846C2
:10CDE000C1701D480178684681701B4841786846CB
:10CDF0004170194881786846017001F011F80646C3
:10CE0000002E26D1A07BE11DFFF720FF0646002E55
:10CE10001FD1E9786846C170A9788170697841703E
:10CE20002978017000F0FCFF064612E0E9786846B8
:10CE3000C170A9788170697841702978017000F01B
:10CE4000EFFF0646002E04D1A07BE11DFFF7FEFE9A
:10CE500006463046F8BD00005FA70000F3B585B078
:10CE60000E4600200490002E0BD16846017301216C
:10CE7000417300218173012141728172017202AC00
:10CE800000E0344600BF30490868012149060140EE
:10CE9000480E002801D0012100E00021002902D025
:10CEA000022004900EE000BF274800680121C90558
:10CEB00088432549086000BF00BF00212248016067
:10CEC00000BF00BF059800283AD00498002837D149
:10CED0006078A1784207520F0B0207273F023B40C0
:10CEE0001A430192184B019A5A6000BF2078C2077A
:10CEF000D20F19468A6000BF21796079A379019326
:10CF00004A0002231A4001231A43830004273B40AE
:10CF10001A43019BDB057F053B401A4300920A4BF5
:10CF2000009A1A6000BF642500E06D1E00F090FCBE
:10CF3000002801D1002DF8D1002D01D1032004904B
:10CF4000049807B0F0BD000000420640F3B587B07A
:10CF50000E4600200690002E0ED168460173017522
:10CF60000121017441744173002181730221C17355
:10CF70003F48029002AC00E0344600BF3D490868DB
:10CF8000012149060140480E002801D0012100E09E
:10CF90000021002902D00220069010E000BF354891
:10CFA00000680121C90588433249086000BF00BFFD
:10CFB00089043048016000BF00202F4908600798AD
:10CFC000002852D0069800284FD1207A617A420773
:10CFD000520F0B0207273F023B401A430192254B99
:10CFE000019A5A6000BFE079A17963790193020147
:10CFF00030231A40CB0008273B401A43019B9B007B
:10D0000004273B401A431B4B9A6000BF207900283D
:10D0100004D0012809D0022815D10DE0237B00227D
:10D02000114616480AF0C6FE0EE0237B00220121BD
:10D0300012480AF0BFFE07E0237B012211460F4889
:10D040000AF0B8FE00E000BF00BF0B49206808608E
:10D050000B4D00E06D1E00F0A3FC002801D1002D57
:10D06000F8D1002D01D103200690069809B0F0BD3B
:10D0700000127A0000410640800500200040064072
:10D0800088E7300038B5002411480AF08CFE0328E8
:10D090001CD000F0DBF8002804D100210120FFF7AC
:10D0A000D5FD0446002C11D103216846C170094802
:10D0B000C178684681700748017968464170054823
:10D0C00041796846017000F0ABFE0446204638BD49
:10D0D0000040064053A7000000BF09494969C9B292
:10D0E000012905D0042905D0802905D1032005E0B8
:10D0F000012003E0022001E0042000BF00BF7047D0
:10D1000000E007400121C17000210171012141713E
:10D1100000218171012101704170817001228273AF
:10D120000273002242730021C17101220272427215
:10D1300030210A540021C162427742490161002234
:10D140000275027701224275002282750222C275A1
:10D1500001220276427628210A54002220210A5414
:10D1600027210A5421210A540C2222210A54002288
:10D1700023210A54012224210A5425210A5435214D
:10D180000A54032234210A54012243210A5403225F
:10D1900039210A54002238210A54012237210A5425
:10D1A00036210A5402223D210A5401223C210A540C
:10D1B00000223B210A5403223A210A54224A0267E0
:10D1C0001621C166012244210A54002245210A5435
:10D1D00046210A5447210A54012248210A544C216D
:10D1E0000A544B210A5400224A210A5449210A5464
:10D1F000012260210A5461210A5462210A546321E8
:10D200000A5464210A5465210A546B210A5450219E
:10D210000A54002242658265C265012266210A54D1
:10D2200067210A54002268210A5469210A546A219C
:10D230000A54012274210A5475210A5400227621CD
:10D240000A54704700127A008405002000BF0C4980
:10D250000322120289180968012212061140090EE0
:10D2600000290BD000BF06490322120289188968E1
:10D270008907890F8900034A505800E00020704751
:10D280000040064014A8000070B504460D4629462B
:10D290002046FFF77DFC70BD10B5002400BF164886
:10D2A00000690C2108408008002806D0012807D01A
:10D2B000022807D003281BD10FE07D24A40218E028
:10D2C000002416E00C480AF089FD002802D07D20D9
:10D2D000000200E0002004460BE007480AF07EFD53
:10D2E000002802D07D20000200E00020044600E07B
:10D2F00000BF00BF204610BD00800440F8B50446C2
:10D300000D46002600272046FFF780FC0646002E2B
:10D3100055D12D48005D2021084000280AD0012069
:10D3200000F050FB002802D1FF20013000E0002077
:10D33000064622E02448005D4021084000280AD02B
:10D34000002000F03FFB002802D1FF20013000E068
:10D350000020064611E01C48005D8021084000289E
:10D360000AD0022000F02EFB002802D1FF2001305D
:10D3700000E00020064600E000BF002E1FD112484A
:10D38000005D18210840002819D00F48005D0821D1
:10D390000840002804D00021204600F017F8074676
:10D3A0000948005D10210840002804D001212046D2
:10D3B00000F00CF80746002F01D1FF260136002DA2
:10D3C00000D02F603046F8BD0EA70000F3B581B045
:10D3D0000446002524486100244A515A89004158D6
:10D3E0001022114009090E4600BF61001F4A515A20
:10D3F000890041580907090F0F46BE4231D821461E
:10D400000AF016F800282CD017486100174A515A24
:10D4100089004158072212061140090E012904D043
:10D42000022908D0032912D10BE00620029900F04E
:10D4300043FA05460DE00420029900F03DFA054646
:10D4400007E00520029900F037FA054601E00025C3
:10D4500000BF00BF791C2846FDF7FBFB0546701C8A
:10D4600045432846FEBD00000050064084A600004B
:10D4700010B500BF1248006A0F2109060840000ECF
:10D48000002806D0012809D002280BD0032811D18A
:10D490000CE0022000F096FA04460DE000F080FA5D
:10D4A000044609E000F0D4F9044605E0FFF7CEFE9B
:10D4B000044601E0002400BF00BF204610BD00006C
:10D4C00000400640F8B504460D460027002623001C
:10D4D0000CF046F910090E13181C202453282B2F8A
:10D4E000353B41474D53002000F06CFA064646E0BC
:10D4F000012000F067FA064641E0022000F062FADF
:10D5000006463CE000F044F8064638E000F0A0F99A
:10D51000064634E0FFF79AFE064630E000F040FA97
:10D5200006462CE01948066829E0FFF7A1FF0646E9
:10D5300025E00021042000F0BFF906461FE001218C
:10D54000042000F0B9F9064619E00021052000F09A
:10D55000B3F9064613E00121052000F0ADF90646B7
:10D560000DE00021062000F0A7F9064607E00121A2
:10D57000062000F0A1F9064601E0042700BF00BF25
:10D58000002D00D02E603846F8BD00007C0500203C
:10D5900070B500BF2C4840680121C9020840C00A8C
:10D5A00000284DD000BF28484068F02108400009FD
:10D5B00003000CF0D5F80F09340D341334191F345F
:10D5C0002429342C34303400FFF752FF044628E07D
:10D5D0000121062000F070F9044622E00121042018
:10D5E00000F06AF904461CE00121052000F064F90E
:10D5F000044616E0002000F0E5F9044611E00120A1
:10D6000000F0E0F904460CE07D24A40209E0FFF7F5
:10D6100043FE044605E000F0E7F8044601E000247C
:10D6200000BF00BF00BF084840680721090208404A
:10D63000000A451C29462046FDF70BFB044600E086
:10D640000024204670BD000000800440F8B5064666
:10D650000D460020009000273046153803000CF0DE
:10D660007FF80D081624282C3547575F708192A348
:10D67000B30000BF5948C068032109060840040EE2
:10D6800000BF032C02D2A00055490F589FE000BFF5
:10D690005248C068032189060840840E00BF032C4D
:10D6A00002D2A0004E490F5891E0FFF771FF0746E4
:10D6B0008DE000F099F8074689E04A4809F0E8FF54
:10D6C000002802D0FFF7E8FD074680E0454809F052
:10D6D000DFFF00280BD000BF40480069C007C00F23
:10D6E000002802D07D20C00000E0002007466EE048
:10D6F0003C4809F0CDFF002809D038480AF06EFBFD
:10D70000002802D07D20000200E0002007465EE0F5
:10D71000344809F0BDFF002801D07D27BF0256E044
:10D7200000BF2E49086C102101400809002801D0D3
:10D73000012100E00021002902D1FF2001300090EA
:10D7400045E000BF2549086C08210140C8080028B1
:10D7500001D0012100E00021002902D1FF20013089
:10D76000009034E000BF1D49086C04210140880886
:10D77000002801D0012100E00021002902D1FF2072
:10D780000130009023E000BF1449086C02210140E1
:10D790004808002801D0012100E00021002902D121
:10D7A000FF200130009012E000BF0C49086CC00758
:10D7B000C00F002801D0012100E00021002902D182
:10D7C000FF200130009002E00420009000BF00BF65
:10D7D000002D00D02F600098F8BD000000800440AC
:10D7E000E809002000D0074010B500BF16480069C6
:10D7F000302108400009002806D001280AD002285C
:10D8000013D003281AD113E00021062000F054F8A9
:10D81000044615E00C480AF0E1FA002802D07D2009
:10D82000000200E0002004460AE00848046807E01F
:10D830000021052000F040F8044601E0002400BF6C
:10D8400000BF204610BD0000008004407C05002081
:10D85000002000BF08490968012212061140090E84
:10D86000002907D000BF04498968C907C90F0029EA
:10D8700000D00248704700000042064000127A00C3
:10D8800070B504460025012C04D0022C06D0032CD0
:10D890000CD107E000F084F8054609E0FFF7D8FF57
:10D8A000054605E0FFF7D2FC054601E0002500BF74
:10D8B00000BF284670BD000070B504460D46002626
:10D8C000002D02D0012D58D128E0042C10D0052CB9
:10D8D00002D0062C1ED114E0FFF7B8FC00BF2D4982
:10D8E00003221202891849684907490F0E4613E0BE
:10D8F000FFF7AEFF00BF284949684907490F0E46A8
:10D900000AE000F04DF800BF244949684907490F73
:10D910000E4601E0002000BF00BF30E0042C12D012
:10D92000052C02D0062C24D118E0FFF78FFC00BF95
:10D93000184903221202891849680722120211406D
:10D94000090A0E4617E0FFF783FF00BF1249496836
:10D95000072212021140090A0E460CE000F020F8DE
:10D9600000BF0E494968072212021140090A0E46FB
:10D9700001E0002000BF00BF01E0002000BF00BFA9
:10D98000002E04D0711E0246CA40104600E000205E
:10D9900070BD0000004006400042064000410640C5
:10D9A00000BF06490968012212061140090E00292C
:10D9B00002D00349086800E000207047004106409B
:10D9C0008005002070B5054622480AF0ECF90128D0
:10D9D00004D0022806D003280CD107E0FFF7E0FFAF
:10D9E000044609E0FFF734FF044605E0FFF72EFC8C
:10D9F000044601E0002400BF00BF16480AF0CCF93D
:10DA0000461C31462046FDF724F90446002D04D07B
:10DA1000012D03D0022D17D10AE017E00D480AF0BE
:10DA2000B5F9461C31462046FDF713F904460DE0D2
:10DA300000BF084800690007000F461C3146204619
:10DA4000FDF707F9044601E0002400BF00BF2046AF
:10DA500070BD00000040064010B504460348046055
:10DA60000171826003734373002010BDD809002048
:10DA700010B504462046FFF7A9F810BD7CB5044652
:10DA8000002C2DD0606800282AD0002525E0AA00AF
:10DA9000AA186068815C0022124809F0DDFCA90028
:10DAA000691860684018C078AA00AA1861688918C7
:10DAB000097900910190AE00AE19606880198378F1
:10DAC000AE00AE19606880194278AE00AE19606889
:10DAD000815D044809F0E2FC6D1C2068A842D6D89C
:10DAE0007CBD000000500640F8B5044620780028B0
:10DAF00016D061780B4809F0D6FD0A48022161561C
:10DB00000A46002A02DA2023D7187AB2D6B205795B
:10DB1000E0273D40F706FF0E3D43057100BF00BF03
:10DB2000F8BD000000D0074070B504460025002C69
:10DB300037D0FFF7A7FA0546002D03D12046FFF79F
:10DB40000BF90546002D2CD13020005D002802D0B5
:10DB50001549E06A08603520005D00280FD03420A8
:10DB6000015D124A106A0F231B0602469A431046B3
:10DB70000A061A4010430D4A106200BF00BF43203E
:10DB8000005D00280DD021463631012000F09AF8C2
:10DB90000546002D05D121463A31022000F092F8C9
:10DBA0000546284670BD00007C0500200040064068
:10DBB000F8B50446207800281BD06178A278E37875
:10DBC0003E4E7068FF2636010746B7433846CE0200
:10DBD0000127FF023E4030431601F0273E4030430C
:10DBE0001E0207273F023E403043344E706000BFA4
:10DBF00000BF2079002807D060790090A379E279EE
:10DC0000217A2E480AF014F9207F002815D0617F70
:10DC10002A480AF02FF9A17F28480AF01FF9E17F6E
:10DC200026480AF0E1F82020015D24480AF0F4F8C3
:10DC30002120015D21480AF0E3F8207B00280ED066
:10DC400000250AE0032D06D2A900204610304058D6
:10DC5000A9001B4A5050681CC5B2032DF2D32220E4
:10DC6000005D002828D000BF1448806E00201349B2
:10DC7000886600BF2420015D104A506801231B0301
:10DC800002469A4310460A031A4010430B4A50605A
:10DC900000BF00231A46194608480AF0F4F823206A
:10DCA000005D002808D02620035D2520025D23208A
:10DCB000015D02480AF0E7F8F8BD0000008004406A
:10DCC000E8090020F3B587B00C4600200690002537
:10DCD000A078401C0590A078401C6178491C4843FE
:10DCE0000490A078401C2178491C48430390E078B8
:10DCF000FFF7C6FD05462D090798012802D0022826
:10DD00007ED13FE0E0780C214843424908580009A1
:10DD100005994843A84215D3E0780C2148433D4972
:10DD200040184068000904994843A8420AD3E078A3
:10DD30000C2148433749401880680009039948433B
:10DD4000A84202D2012006901BE0E3780293A0785B
:10DD500061782278029B1B060F26360633400604A4
:10DD60000F273F043E4033430E01F0273E4033432C
:10DD70001607360F33430193274E019B736100BF93
:10DD800000BF42E0E0780C214843244908580009CC
:10DD900005994843A84215D3E0780C2148431F4910
:10DDA00040184068000904994843A8420AD3E07823
:10DDB0000C214843194940188068000903994843D9
:10DDC000A84202D2012006901DE0E078A278617896
:10DDD0002678029603060F263606334016040F27D0
:10DDE0003F043E4033430E01F0273E403343029E42
:10DDF0003607360F33430193074E019BB36100E0B2
:10DE000002E000BF00BF00E000BF00BF069809B0FD
:10DE1000F0BD0000C0A70000004006406CA7000055
:10DE2000F8B505460026FFF757F907462946384654
:10DE3000FFF748FF0646002E0DD10A2400BF641EDE
:10DE4000064809F0B0FFE978884201D0002CF6D1ED
:10DE5000002C00D103263046F8BD000000400640EB
:10DE6000FEB507460E4600200190684607704670D2
:10DE700007F0B8FD3E48007B3D49487301216846E4
:10DE80008170002518E03A488068A9004458002CA9
:10DE900010D0207902280DD068462268A1689047EA
:10DEA000002807D032484573002E03D1FF200430EC
:10DEB000019005E0681CC5B22D48007BA842E2DC59
:10DEC00000BF0198002801D0012E10D1284909680F
:10DED000BA008858FFF7CCFD01900198002801D1C5
:10DEE000012000E0002002902148477101E000205D
:10DEF00002900298002822D00220694688700025EE
:10DF000018E01B488068A9004458002C10D02079E4
:10DF100001280DD068462268A1689047002807D0E4
:10DF200013484573002E03D1FF200530019005E012
:10DF3000681CC5B20E48007BA842E2DC14E0002059
:10DF40006946887000BF0A488068A9004458002CC0
:10DF500003D068462268A1689047002D00D102E0F6
:10DF6000681EC5B2EFE700BF07F052FD0198FEBD85
:10DF7000D80900200848806908494840084AC1B2C9
:10DF8000535C08494B7143051B0ED25C0A7242096F
:10DF90008A71400AC871704700E000E05AA55AA58E
:10DFA000ECA20000900E002010B4032804D3FF2838
:10DFB00002D010BC0F20704700221249FF2807D062
:10DFC0000B8A01248440A3430B82002802D008E07E
:10DFD0000A82FAE74B785B085B004B7000BF0A4B84
:10DFE0001A82012804D14A78F7231A404A7000BFE8
:10DFF000022804D14878EF221040487000BF00206A
:10E0000010BC7047300B0020F40B00200021FF22D1
:10E0100043181A72491C0829FAD3704710B4002219
:10E02000835C8C182372521C082AF9D310BC7047E9
:10E03000F8B5044603276078002826D02079002808
:10E0400025D0244E244D0B2007F0C0FC2079002859
:10E050001FD0E778E078401C0007000FE0702079BF
:10E06000401E20710B2007F0C7FC38010019C16861
:10E07000B14213D1012129770830184900F0BBF8CB
:10E08000164800F005FF07461FE00520F8BD0320F5
:10E09000F8BD0B2007F0B0FC3846F8BDC268104947
:10E0A0008A420AD10021297708300C4900F0A3F8F0
:10E0B0000A4800F0EDFE074607E00830094900F085
:10E0C0009AF8084800F070F90746002FBBD138468F
:10E0D000F8BD000009070000900E0020580C002039
:10E0E000DF070000640B002010B51021224809F062
:10E0F000F1F9FEF71FFA214800F05CF8204800F023
:10E100006CF8204800F069F81F4800F066F81F48D6
:10E1100000F063F81E4800F060F81E4800F05DF85B
:10E120001D4800F05AF81D4800F057F81C4800F050
:10E1300054F81C4800F051F81B4800F04EF800F06D
:10E1400073FB01F0B7F900F067FF18480021016187
:10E15000417717484170417381730169490849004B
:10E160000161016902229143016101690422914325
:10E1700001610121417210BD40F00F40280A0020CA
:10E18000640B0020580C0020840B0020940B00200E
:10E19000A40B0020B40B0020C40B0020E40B0020D3
:10E1A000740B0020680C0020D40B0020900E00207F
:10E1B000300B002070B50121017041700021C17049
:10E1C000817001710446083400252046103400F0A7
:10E1D00004F86D1C102DF8D370BD01210170417041
:10E1E000002282704260C270002143181A72491CDA
:10E1F0000829FAD3704710B442684A60C278CA70DE
:10E20000002283181B7A8C182372521C082AF8D318
:10E210000120887010BC704700B5034901200872C6
:10E22000FF20FFF7C1FE00BD300B002010B50349F1
:10E230000020087201F03EF910BD0000300B0020F4
:10E24000032803D3FF2801D00F20704713490A7A0F
:10E25000002A01D00F2070474A7A002A01D00028F6
:10E2600012D0CA7A002A01D001280FD00A7B002AD6
:10E2700001D002280CD0FF280CD00B8A012282404A
:10E2800013430B82002070470F2070470F20704708
:10E290000F2070470020C0430882F3E7300B0020B6
:10E2A00010B54278002A03D0052903D3092010BDF8
:10E2B000052010BDFEF7B0F9002801D0002010BDE8
:10E2C0000E2010BD70B5124D286800281FDB114CC0
:10E2D000A07B00281BD10120A073286BC00708D0A9
:10E2E0006078C00705D0607840084000607000F09A
:10E2F00073FC286BC00608D56078C00605D5607829
:10E30000EF210840607001F049F80020A07370BD53
:10E3100000400240300B002070B51F480068002804
:10E3200038DB1E4C207A002834D1607B002831D1A4
:10E3300001266673607A002812D12069C0070FD0C9
:10E3400000211748FFF7ACFF0546284600F09AFC6D
:10E35000002D05D12069B0432061607830436070A2
:10E36000207B002814D12069400711D504210D48D5
:10E37000FFF796FF0546284601F01CF8002D07D14F
:10E38000206904218843206160781021084360706F
:10E390000020607370BD000000400240300B002080
:10E3A000D40B0020680C002010B504460F236078C1
:10E3B000002808D0A078002807D02B48807A0028B1
:10E3C00005D0002010BD052010BD062010BD6168DD
:10E3D000264A881A91421FD010DC932925D097290C
:10E3E0002CD06320C000814239D12149204600F061
:10E3F000A3FA1F4800F01CF9034630E03C2802D085
:10E40000D4282CD123E01B49204600F095FA194866
:10E4100000F03AF8034622E01749204600F08CFA53
:10E42000154800F067F9034619E01449204600F04A
:10E4300083FA124800F044F9034610E010492046E0
:10E4400000F07AFA0E4800F0A3F9034607E00D4900
:10E45000204600F071FA0B4800F0B4F903460020A2
:10E46000A070184610BD0000300B00201E030000F5
:10E47000840B0020940B0020A40B0020B40B002080
:10E48000C40B0020E40B002070B5044600F07CFAB9
:10E490006078002809D0E27862482021082A06D056
:10E4A000026B0A4302630A2070BD052070BD026B37
:10E4B0008A4302635C4CA0685C4D0004000F0C288A
:10E4C0007ED8A0680004000F7AD0A068A16800057B
:10E4D000000F40000902C90F40181F2870D8A0681B
:10E4E000A1680005000F40000902C90FC84267D0AB
:10E4F000A0684002C00E172862D8A0688003800F71
:10E500000101A068000F08183B2859D8A068E168ED
:10E510000001000F80000906890F40183B2876D8BB
:10E52000A0680A21C0B2FCF794FB0601A0680A218A
:10E53000C0B2FCF78EFB0E43EE74A0680A21000403
:10E54000000FFCF786FB0601A0680A210004000FFB
:10E55000FCF77FFB0E432E75A068A1680005000F35
:10E5600040000902C90F40180A21FCF772FB06019E
:10E57000A068A1680005000F40000902C90F4018FB
:10E580000A21FCF766FB0E436E75A0680A21400263
:10E59000C00EFCF75EFB0601A0680A214002C00E17
:10E5A000FCF757FB0E43AE75A068A1688003800F8F
:10E5B0000001090F40180A21FCF74BFB060100E09F
:10E5C00025E0A068A1688003800F0001090F4018B2
:10E5D0000A21FCF73EFB0E43EE75A068E1680001DE
:10E5E000000F80000906890F40180A21FCF731FB53
:10E5F0000601A068E1680001000F80000906890F8C
:10E6000040180A21FCF725FB0E432E7608E0132064
:10E61000E8740120287568750020A875E8752876CB
:10E62000002070BDF40B0020940B0020F4090020A2
:10E6300070B505461D4EB47800F0AFF96878002833
:10E6400009D0E9781A482022082906D0416A1143E6
:10E6500041620A2070BD052070BD416A914341624C
:10E66000144880688007800FB0701348416A012207
:10E6700052049143416200211048022C04D0012C25
:10E6800002D0002C07D00EE0B278002A0BD1012274
:10E690000270418007E0B278022A02D0B278012AE3
:10E6A00001D101704180002070BD0000F4090020FC
:10E6B000F40B0020840B00204C14002024060020C2
:10E6C00010B5044600F072F96078002809D0E278AD
:10E6D00007482021082A06D0426D0A4342650A20D5
:10E6E00010BD052010BD426D8A434265002010BD5B
:10E6F000F40B002010B5044600F064F9607800289F
:10E7000009D0E2781D482021082A06D0C26B0A43AE
:10E71000C2630A2010BD052010BDC26B8A43C263CC
:10E7200017488168C268090E09041206120C89187C
:10E73000C268144B1204120E8A1813499A4215D853
:10E740008268C368120E12041B061B0CD218C36821
:10E750001B041B0ED218CA608268120E0A74C268AB
:10E760004A74C0680004000E887405E00748C86059
:10E77000FF20087448748874002010BDF40B00203A
:10E78000A40B00207F969800F4090020FFFFFF00F3
:10E7900010B5044600F020F96078002809D0E2782E
:10E7A00007482021082A06D0026E0A4302660A2082
:10E7B00010BD052010BD026E8A430266002010BD08
:10E7C000F40B002010B5044600F012F96078002820
:10E7D00009D0E27820201149082A06D08A6C024329
:10E7E0008A640A2010BD052010BD8A6C82438A64A9
:10E7F0008868C2070A4807D18268120104D5094A0D
:10E80000012313700023538080688A680001C00FC1
:10E810005208520002438A60002010BDF40B002011
:10E82000E40B00202406002030B43D483B49416001
:10E830000822C2703B4881694908490081618169A9
:10E84000042399438161002141828182C182018236
:10E85000456A012425434562056B25430563C56B65
:10E860002543C563856C25438564446A9C434462A3
:10E87000046B9C430463C46B9C43C463846C9C43DF
:10E880008464436A93434362036B93430363C36BA0
:10E890009343C363836C93438364436A102293431B
:10E8A0004362036B93430363C36B9343C363836C00
:10E8B00093438364436A202293434362036B9343ED
:10E8C0000363C36B9343C363836C93438364436A5F
:10E8D000402293434362036B93430363C36B9343AD
:10E8E000C363836C93438364FF23F53383830E4AAE
:10E8F000028582860D4A138081770D4B9972997536
:10E900009170962101840B4B8385038791808168E8
:10E9100049084900816030BC704700008303000053
:10E92000D40B0020F40B002088130000340C0020CE
:10E93000140C0020DC05000010B4C278CA70027903
:10E940000A7142794A7182798A71C279CA71002248
:10E95000C378934207D983181B7A8C182372521CF0
:10E96000C3789342F7D80120887010BC704710B567
:10E97000002801D0002010BDFFF762FC002801D064
:10E98000002010BD012010BD00B50021012000F0C5
:10E9900063F8012000F036F800BD00B500210846FC
:10E9A00000F05AF8002000F02DF800BD03490120C6
:10E9B000087000224A80024908707047240600202F
:10E9C0001106002000B50021022000F045F80220C9
:10E9D00000F018F800BD0000034901200870002273
:10E9E0004A80024908707047240600201006002063
:10E9F00000B50021032000F02FF8032000F002F8FA
:10EA000000BD0000F0B4062801D3FF281BD100226E
:10EA10000E4D012610270824904201D0FF280FD167
:10EA20000C21514349198B7F5B1C1B061B0E8B77F6
:10EA300006D08E774B6A3B434B624B6AA3434B62D3
:10EA4000521C062AE8D3F0BC70470000F40B0020EB
:10EA50007047704770470000F0B506460D46062E19
:10EA600001D3FF2E21D10024104FA64201D0FF2E4A
:10EA700018D10C206043C019416AC90712D0022D79
:10EA800001D0002D03D1426A04218A434262022D43
:10EA900001D0012D03D1426A08218A434262E0B2CB
:10EAA00000F008F8641C062CDFD3F0BDF40B002046
:10EAB0007047000030B4062801D3FF2813D100218D
:10EAC0000A4B0B4C884201D0FF2809D10C224A4343
:10EAD000D218556AED0703D04D00655B6D0895832C
:10EAE000491C0629EED330BC70470000F40B00200F
:10EAF000ACA800000248816849084900816070475D
:10EB0000F40B0020F8B500252D4E40270C20294697
:10EB100041432C480C18606AC00730D0A08B0028F5
:10EB200031D0A08B401EA0836800274A315A125A68
:10EB3000490852085200A38B8A1A9A4205D1002232
:10EB4000A277626A10239A436262204A105AA28B0B
:10EB50004008081A904203D1606A042210436062A0
:10EB6000A08B00280FD1A183606A0821084360624E
:10EB70001748A9004058002805D0804703E06800E6
:10EB8000305A4008A083606A80060CD5208C00288B
:10EB900011D0208C401E2084208C00280BD1606A6C
:10EBA0003843606207E00B486900405A40082084FF
:10EBB000606AB84360626D1C062DA7D3F8BD0000E3
:10EBC000ACA80000F40B002094A80000A0A800004E
:10EBD000B8A80000D0A800007047000030B400289A
:10EBE00001D0FF2812D10022094BCC07E40F90423C
:10EBF00001D0FF2807D10C215143C9188D696D0838
:10EC00006D0025438D61521C002AF0D030BC704746
:10EC1000F40B002070B4002801D0FF2811D100228D
:10EC2000094C0A4D904201D0FF2807D10C235343D1
:10EC30001B19D9825600AE5B76089E82521C002AB0
:10EC4000F0D070BC70470000F40B002092A80000C8
:10EC500030B4002801D0FF2810D10021084B012436
:10EC6000884201D0FF2806D10C224A43D218956968
:10EC7000ED0700D05482491C0029F1D030BC704708
:10EC8000F40B002010B5002806D10448C08A0328E0
:10EC900002D10348FFF7BAF910BD0000F40B0020C1
:10ECA000D40B002070470000F8B5434900240878D1
:10ECB000012826D04C8041488278414E022A2AD031
:10ECC0008078012827D00878012824D00021084620
:10ECD000FFF784FF6420708200253A4F04260C2041
:10ECE0002946414336480C18A069C00726D0608ADF
:10ECF000002802D0608A401E6082608A002813D0FB
:10ED00001CE04888401C80B248802F4A9042D2D9EB
:10ED10004C800C70CFE701210020FFF75FFF00213E
:10ED20000846FFF777FFD7E76800385A4008608247
:10ED3000E08A002802D1A0693043A061E08A00285F
:10ED400013D0A08A002802D0A08A401EA082A08AE8
:10ED500000280AD11D496800095A4908A182385A79
:10ED600040086082A0693043A061208A002802D058
:10ED7000208A401E2082A06940070CD5208A0028E6
:10ED800009D1E8B2FFF7F3FD012808D0A0693043AC
:10ED9000A061002020826D1C002DA0D0F8BDA069CC
:10EDA000B043A0610A202082E08A0028F3D0E08AE4
:10EDB000401EE082EFE7000024060020F409002056
:10EDC000F40B002090A80000C409000092A80000E5
:10EDD00008B500236A460121074800F0D1F9002850
:10EDE00001D0012008BD68460078FF2801D001202D
:10EDF00008BD002008BD00000300001408B5FF2076
:10EE0000009000236A460121044800F0D5FA00284A
:10EE100001D0002008BD012008BD0000030000143F
:10EE200008B5A720009000236A460121044800F09D
:10EE3000C3FA002801D0002008BD012008BD000051
:10EE40000300001438B5044600236A460121064831
:10EE500000F096F9002801D0002038BD68460078FF
:10EE6000C0432070012038BD0400001408B50078AC
:10EE7000C043009000236A460121044800F09CFA38
:10EE8000002801D0002008BD012008BD04000014A6
:10EE900070B504466078002807D0A078002806D016
:10EEA000E078082805D00A2070BD052070BD062036
:10EEB00070BD094832210161012141776268074B29
:10EEC00000259A4201D1057000E00170204600F053
:10EED000F9FBA57070BD0000900E0020090700002E
:10EEE00010B50346186800782E2833D010DC192896
:10EEF00028D006DC10281FD011281FD0142817D1C5
:10EF00001EE0222820D0272820D0282810D11FE05A
:10EF1000362836D006DC2F281ED031281ED03428C3
:10EF200006D12EE037282CD03E2819D0852819D0BC
:10EF3000112100F0C3F810BD144914E0144912E087
:10EF4000144910E014490EE014490CE014490AE099
:10EF5000144908E0144906E0144904E0144902E0A9
:10EF6000144900E01449272806D03E2804D0134A4B
:10EF70000020D070124A10700029DCD01846884753
:10EF800010BD7F2100F09AF810BD00008D0D01002A
:10EF9000190F0100950F0100F10F0100B9110100D7
:10EFA0000D120100C1130100C51401005915010023
:10EFB000B11601005D170100C1170100900E00207D
:10EFC000B00E002000B507494878032809D106484B
:10EFD0000078102805D300F035F9552801D05520C8
:10EFE000887000BD900E00202806002008B5002380
:10EFF0006A460121064801F00FFC002801D00020DC
:10F0000008BD6846034900780870012008BD00006B
:10F01000710100142806002070B51E481C4941608B
:10F020000821C17000F05AFD01F04CFB1A4D00247C
:10F030002C7001206870AC70184E4102301DFBF737
:10F0400004FE74803480FFF7C3FE002802D06420E1
:10F05000686100E06C61FFF7C9FF002802D1104928
:10F06000FF2008700F4844708470C4700471EC77FE
:10F07000AC774471AC610D480B49016084800C4948
:10F08000816084810B4804700B48047070BD0000DF
:10F0900089070000680C0020900E00208C0C0020D6
:10F0A00028060020B00E0020C80E0020780C00209A
:10F0B000900C0020130600201206002030B585B009
:10F0C000204C2278012A09D1112920D012291ED0E2
:10F0D00031291CD07E291AD07F2918D07F25782984
:10F0E00017D0194A0023938193895C1C94819468FA
:10F0F000E55493895C1C94819468E0549089431C86
:10F100009381936819549168908900F077FC05B059
:10F1100030BD0E4A019208236A46D370032313724E
:10F1200055729072D172AA20107350739073D0737D
:10F1300004216846FDF770FA3220206101206077D3
:10F1400005B030BD900E0020780C0020890700002B
:10F1500010B58168808900F051FC10BD08B5B5205C
:10F160000090052000236A460121800600F024F962
:10F17000002801D0002008BD012008BD7047000014
:10F1800070B50D4616461C4605218906884204D3F3
:10F190004119124A491E914201D90C2070BD3246D4
:10F1A000294603F06FFD002815D0002C11D0012C4A
:10F1B00002D0032C0DD103E009490120C87708E0F3
:10F1C000A9B2FF22304600F0B5FE002801D0092088
:10F1D00070BD002070BD0F2070BD0000FF00001446
:10F1E000900E002010B515494160C17808290AD257
:10F1F000AA2301460831C2785354C278521CC27007
:10F20000C278082AF7D3027A0D490A72427A4A7202
:10F21000827A8A72C27ACA72027B0A73427B4A730A
:10F22000827B8A73C07BC8730220FFF709F800282D
:10F2300001D0002010BD012010BD00008907000092
:10F24000680C00200148807870470000900E002074
:10F25000F8B500F0B0F8FFF791FF2C4C607801276B
:10F2600000252B4E002801D0777206E0707A002826
:10F2700003D07572FF20FFF7EBFCA078002801D0C7
:10F28000B77200E0B572E078002801D0F77200E0B4
:10F29000F572217901221F48D203002903D0416A67
:10F2A0009143416202E0416A114341621A4BD87FA7
:10F2B00000280CD01948007C002808D1306940078C
:10F2C00005D4022001F0B0F909F02AFCFEE7987F8E
:10F2D000002819D00020124A242141438918897836
:10F2E000C90603D4401CC0B20828F5D308280BD1A6
:10F2F0009D770C498D8188895423421C8A818968B5
:10F300000B540848FFF724FFF8BD0000B00E0020A2
:10F31000300B00204C140020900E00201813002009
:10F320002C130020780C002070B51A4C20690025A1
:10F3300000280DD02069401E20612069002807D1D7
:10F3400065776078012803D001206070FFF764FEC4
:10F350006069002811D06069401E60616069002802
:10F360000BD1201DFFF76EFD2079002802D02079F7
:10F37000401E2071201DFFF779FDA069002807D0ED
:10F38000A069401EA061A069002801D10248457112
:10F3900070BD0000900E0020B00E002010B500F0EF
:10F3A00017FC0348322101610121417710BD0000A3
:10F3B000900E00207047704770B51C4605239B06D1
:10F3C000984204D343180A4D5B1EAB4201D90C206E
:10F3D00070BD03F08BFC002808D0002C04D0012C59
:10F3E00002D104490120C877002070BD0F2070BDF4
:10F3F000FF000014900E0020F8B51C4CA0680025FA
:10F400001B4E0A2809D96069800706D40120607064
:10F41000757206210020FFF7FDFBA07815494022F8
:10F42000022700280FD0A06864280BD3A560486885
:10F4300090434860757206210020FFF7EBFB60697E
:10F44000B8436061F8BDA0686428FBD3A560486834
:10F4500090434860757206210020FFF7DBFB60696E
:10F46000B8436061A078401CA070F8BD480B002034
:10F47000300B00200040024070B503F0CBFE0B4C77
:10F4800060780225022803D065700020A070A0607B
:10F49000FF20FEF789FD0649012048720021084639
:10F4A000FFF7B8FB60692843606170BD480B00201E
:10F4B000300B00200149012048707047480B0020A4
:10F4C0007047000010B507488168491C816040788A
:10F4D000002805D0012803D0022801D1FFF78CFFB6
:10F4E00010BD0000480B002010B500200A494A7CDE
:10F4F000002A03D00023012A0BD04B74002807D028
:10F50000074806490160074949888180FFF7E8FC00
:10F5100010BD01204B74F1E718130020D410002017
:10F52000780C0020D010002070B500255F4C207CA6
:10F530000D287AD201007944097949188F44AB0625
:10F540001D23657D273B508389A05600584E706966
:10F5500000280BD0F0683168884209D35548FFF77E
:10F5600041FE002805D00220207494E00020207481
:10F5700070BD3068401EF0608DE04D484069002845
:10F580003FD1207470BD01250020207483E04848DD
:10F590000021817147490322CA70027930320A7210
:10F5A00042794A7214228A720121C16124210161C7
:10F5B000072020746FE03E4E306900280AD0F069C1
:10F5C0000028DFD13B48FFF70DFE002805D00820BA
:10F5D000207460E00020207470BD0120F0615AE0CA
:10F5E00033480069002856D1207470BD3048006A45
:10F5F000002807D0207B00284DD000202073012553
:10F60000207448E00020207470BD294E70690028E5
:10F610000CD0F06831688842F6D32648FFF7E2FD47
:10F62000002806D00520207435E032E00020207448
:10F6300070BD3068401EF0602DE01D484069002814
:10F6400029D1207470BD1A488069002823D1207404
:10F6500070BD174E706900280AD0706A0028F7D173
:10F660001448FFF7BFFD002807D00B20207412E0DC
:10F670000B2030600020207470BD012070620AE011
:10F680000B484169002906D10B210160002020743C
:10F6900070BD00202074002DFAD008480649016092
:10F6A000074949888180FFF71BFC70BD18130020B3
:10F6B000F8120020E8120020C80E0020780C00206C
:10F6C000C40E0020F0B504466078002812D0A0785F
:10F6D000002811D0207AC04900090001BF4D002642
:10F6E00000280BD0BE4F102854D0202873D03028CB
:10F6F0004DD1E7E00520F0BD0620F0BD287C0A28AA
:10F7000024D0287C0B2821D0287C09281ED06268B0
:10F71000B44882421ED1207AB3490007000F4880C6
:10F720004888072814D84888002811D000204A8823
:10F73000824208D92218527A0B181A71401CC0B2A2
:10F740004A888242F6D80320287442E10F20F0BD97
:10F750000A20F0BD6068884219D1207AA3490007C9
:10F76000000F48804888072812D8488800280FD002
:10F7700000204A88824208D92218527A0B181A713E
:10F78000401CC0B24A888242F6D80120687420E149
:10F790000A20F0BD287C0A280AD0287C0B2807D034
:10F7A000287C092804D06068884203D10F20F0BD6E
:10F7B0000F20F0BD207A617A0007000D41188A48B9
:10F7C00041804188072904D34188012212039142D4
:10F7D00002D90A20F0BD20E0418801225202914264
:10F7E00004D9834802210171467113E080490E71EA
:10F7F00008224A710680018806290BD223460A3363
:10F800000188C95C0288D1550188491C01800188A2
:10F810000629F5D306202874DBE06068884201D110
:10F820000F20F0BD287C082801D100F0D1F9287CF8
:10F830000C2846D16E488179491C8171817909076C
:10F84000090F81718079217A0907090F884202D056
:10F850002E740F20F0BD0020634B19885A88914206
:10F860000AD22118497A1A88D155401CC0B2198889
:10F87000491C19800728F0D35D484179002902D03E
:10F880004179491E41714B21016219885A88914280
:10F8900002D3012028739CE04179002911D108216D
:10F8A000417154490322CA70027930320A72427996
:10F8B0004A7214228A720121C16124210161072048
:10F8C000287486E06068884201D10F20F0BD287C52
:10F8D000052801D100F07CF9287C0B2808D1687B31
:10F8E000002805D04248007A012801D100F070F9C3
:10F8F000287C09286DD1207A01073D48090FC17184
:10F90000617A0172A17A016001687F2902D90B2115
:10F9100001600BE00168002912D00168491C0160F8
:10F920000168490801600168891C0160C1790029EA
:10F9300008D0C17901293FD0C079022848D048E0D9
:10F940000660F3E7017A002902D00121697300E023
:10F950006E732748417A491C4172417A0907090FA1
:10F960004172407A2F21203008402249087200203D
:10F97000214B1F1D19885A8891420BD21988CA5DE4
:10F980001C4909184A72401CC0B21988491C1980C8
:10F990000728EFD307280BD01649401CC87014481D
:10F9A000016841620168233141610A20287410E036
:10F9B00010490820C870F2E7817A491C8172817A67
:10F9C000002902D086722E7403E04B21816100E091
:10F9D0002E743046A670F0BDDF070000181300201B
:10F9E000C80E002009070000C40E0020D01000201F
:10F9F000F8120020E8120020DC10002010B50028CA
:10FA000003D001225202904201D9002010BD0828E3
:10FA100002D200F043F801E000F002F8012010BD2E
:10FA200030B4012212030243D204D20C164B082434
:10FA3000DC70140A1C725A72144A00231380138853
:10FA4000062B0AD2124C0B7815882B55491C1388AB
:10FA50005B1C13801388062BF5D350800620538837
:10FA6000834207D90B7814182371491C401C538812
:10FA70008342F7D8074801682331416106480421D1
:10FA8000017430BC70470000E8120020DC10002038
:10FA9000F2120020F81200201813002030B40207E0
:10FAA000120F0B4B441CDC701A720022002807D97D
:10FAB0000C789D186C72491C521CD2B28242F7D34A
:10FAC00004492320486104480121017430BC704777
